{
	"contracts/SenderSingle.sol": {
		"VoteSender": {
			"abi": [
				{
					"inputs": [
						{
							"internalType": "address",
							"name": "_gateway",
							"type": "address"
						},
						{
							"internalType": "address",
							"name": "_gasReceiver",
							"type": "address"
						}
					],
					"stateMutability": "nonpayable",
					"type": "constructor"
				},
				{
					"inputs": [
						{
							"internalType": "string",
							"name": "destinationChain",
							"type": "string"
						},
						{
							"internalType": "string",
							"name": "destinationAddress",
							"type": "string"
						},
						{
							"internalType": "address",
							"name": "proposalAddress",
							"type": "address"
						},
						{
							"internalType": "uint256",
							"name": "_proposalId",
							"type": "uint256"
						},
						{
							"internalType": "enum IMajorityVoting.VoteOption",
							"name": "_voteOption",
							"type": "uint8"
						},
						{
							"internalType": "string",
							"name": "symbol",
							"type": "string"
						},
						{
							"internalType": "uint256",
							"name": "amount",
							"type": "uint256"
						}
					],
					"name": "sendToProposal",
					"outputs": [],
					"stateMutability": "payable",
					"type": "function"
				}
			],
			"devdoc": {
				"kind": "dev",
				"methods": {},
				"version": 1
			},
			"evm": {
				"assembly": "    /* \"contracts/SenderSingle.sol\":472:1890  contract VoteSender {... */\n  mstore(0x40, 0xc0)\n    /* \"contracts/SenderSingle.sol\":585:745  constructor(address _gateway, address _gasReceiver) {... */\n  callvalue\n  dup1\n  iszero\n  tag_1\n  jumpi\n  0x00\n  dup1\n  revert\ntag_1:\n  pop\n  mload(0x40)\n  sub(codesize, bytecodeSize)\n  dup1\n  bytecodeSize\n  dup4\n  codecopy\n  dup2\n  dup2\n  add\n  0x40\n  mstore\n  dup2\n  add\n  swap1\n  tag_2\n  swap2\n  swap1\n  tag_3\n  jump\t// in\ntag_2:\n    /* \"contracts/SenderSingle.sol\":673:681  _gateway */\n  dup2\n    /* \"contracts/SenderSingle.sol\":648:682  gateway = IAxelarGateway(_gateway) */\n  0xffffffffffffffffffffffffffffffffffffffff\n  and\n  0xa0\n  dup2\n  0xffffffffffffffffffffffffffffffffffffffff\n  and\n  dup2\n  mstore\n  pop\n  pop\n    /* \"contracts/SenderSingle.sol\":724:736  _gasReceiver */\n  dup1\n    /* \"contracts/SenderSingle.sol\":693:737  gasService = IAxelarGasService(_gasReceiver) */\n  0xffffffffffffffffffffffffffffffffffffffff\n  and\n  0x80\n  dup2\n  0xffffffffffffffffffffffffffffffffffffffff\n  and\n  dup2\n  mstore\n  pop\n  pop\n    /* \"contracts/SenderSingle.sol\":585:745  constructor(address _gateway, address _gasReceiver) {... */\n  pop\n  pop\n    /* \"contracts/SenderSingle.sol\":472:1890  contract VoteSender {... */\n  jump(tag_6)\n    /* \"#utility.yul\":88:205   */\ntag_8:\n    /* \"#utility.yul\":197:198   */\n  0x00\n    /* \"#utility.yul\":194:195   */\n  dup1\n    /* \"#utility.yul\":187:199   */\n  revert\n    /* \"#utility.yul\":334:460   */\ntag_10:\n    /* \"#utility.yul\":371:378   */\n  0x00\n    /* \"#utility.yul\":411:453   */\n  0xffffffffffffffffffffffffffffffffffffffff\n    /* \"#utility.yul\":404:409   */\n  dup3\n    /* \"#utility.yul\":400:454   */\n  and\n    /* \"#utility.yul\":389:454   */\n  swap1\n  pop\n    /* \"#utility.yul\":334:460   */\n  swap2\n  swap1\n  pop\n  jump\t// out\n    /* \"#utility.yul\":466:562   */\ntag_11:\n    /* \"#utility.yul\":503:510   */\n  0x00\n    /* \"#utility.yul\":532:556   */\n  tag_20\n    /* \"#utility.yul\":550:555   */\n  dup3\n    /* \"#utility.yul\":532:556   */\n  tag_10\n  jump\t// in\ntag_20:\n    /* \"#utility.yul\":521:556   */\n  swap1\n  pop\n    /* \"#utility.yul\":466:562   */\n  swap2\n  swap1\n  pop\n  jump\t// out\n    /* \"#utility.yul\":568:690   */\ntag_12:\n    /* \"#utility.yul\":641:665   */\n  tag_22\n    /* \"#utility.yul\":659:664   */\n  dup2\n    /* \"#utility.yul\":641:665   */\n  tag_11\n  jump\t// in\ntag_22:\n    /* \"#utility.yul\":634:639   */\n  dup2\n    /* \"#utility.yul\":631:666   */\n  eq\n    /* \"#utility.yul\":621:684   */\n  tag_23\n  jumpi\n    /* \"#utility.yul\":680:681   */\n  0x00\n    /* \"#utility.yul\":677:678   */\n  dup1\n    /* \"#utility.yul\":670:682   */\n  revert\n    /* \"#utility.yul\":621:684   */\ntag_23:\n    /* \"#utility.yul\":568:690   */\n  pop\n  jump\t// out\n    /* \"#utility.yul\":696:839   */\ntag_13:\n    /* \"#utility.yul\":753:758   */\n  0x00\n    /* \"#utility.yul\":784:790   */\n  dup2\n    /* \"#utility.yul\":778:791   */\n  mload\n    /* \"#utility.yul\":769:791   */\n  swap1\n  pop\n    /* \"#utility.yul\":800:833   */\n  tag_25\n    /* \"#utility.yul\":827:832   */\n  dup2\n    /* \"#utility.yul\":800:833   */\n  tag_12\n  jump\t// in\ntag_25:\n    /* \"#utility.yul\":696:839   */\n  swap3\n  swap2\n  pop\n  pop\n  jump\t// out\n    /* \"#utility.yul\":845:1352   */\ntag_3:\n    /* \"#utility.yul\":924:930   */\n  0x00\n    /* \"#utility.yul\":932:938   */\n  dup1\n    /* \"#utility.yul\":981:983   */\n  0x40\n    /* \"#utility.yul\":969:978   */\n  dup4\n    /* \"#utility.yul\":960:967   */\n  dup6\n    /* \"#utility.yul\":956:979   */\n  sub\n    /* \"#utility.yul\":952:984   */\n  slt\n    /* \"#utility.yul\":949:1068   */\n  iszero\n  tag_27\n  jumpi\n    /* \"#utility.yul\":987:1066   */\n  tag_28\n  tag_8\n  jump\t// in\ntag_28:\n    /* \"#utility.yul\":949:1068   */\ntag_27:\n    /* \"#utility.yul\":1107:1108   */\n  0x00\n    /* \"#utility.yul\":1132:1196   */\n  tag_29\n    /* \"#utility.yul\":1188:1195   */\n  dup6\n    /* \"#utility.yul\":1179:1185   */\n  dup3\n    /* \"#utility.yul\":1168:1177   */\n  dup7\n    /* \"#utility.yul\":1164:1186   */\n  add\n    /* \"#utility.yul\":1132:1196   */\n  tag_13\n  jump\t// in\ntag_29:\n    /* \"#utility.yul\":1122:1196   */\n  swap3\n  pop\n    /* \"#utility.yul\":1078:1206   */\n  pop\n    /* \"#utility.yul\":1245:1247   */\n  0x20\n    /* \"#utility.yul\":1271:1335   */\n  tag_30\n    /* \"#utility.yul\":1327:1334   */\n  dup6\n    /* \"#utility.yul\":1318:1324   */\n  dup3\n    /* \"#utility.yul\":1307:1316   */\n  dup7\n    /* \"#utility.yul\":1303:1325   */\n  add\n    /* \"#utility.yul\":1271:1335   */\n  tag_13\n  jump\t// in\ntag_30:\n    /* \"#utility.yul\":1261:1335   */\n  swap2\n  pop\n    /* \"#utility.yul\":1216:1345   */\n  pop\n    /* \"#utility.yul\":845:1352   */\n  swap3\n  pop\n  swap3\n  swap1\n  pop\n  jump\t// out\n    /* \"contracts/SenderSingle.sol\":472:1890  contract VoteSender {... */\ntag_6:\n  mload(0x80)\n  mload(0xa0)\n  codecopy(0x00, dataOffset(sub_0), dataSize(sub_0))\n  0x00\n  assignImmutable(\"0x789bcdf275fa270780a52ae3b79bb1ce0fda7e0aaad87b57b74bb99ac290714a\")\n  0x00\n  assignImmutable(\"0x1a192fabce13988b84994d4296e6cdc418d55e2f1d7f942188d4040b94fc57ac\")\n  return(0x00, dataSize(sub_0))\nstop\n\nsub_0: assembly {\n        /* \"contracts/SenderSingle.sol\":472:1890  contract VoteSender {... */\n      mstore(0x40, 0x80)\n      jumpi(tag_1, lt(calldatasize, 0x04))\n      shr(0xe0, calldataload(0x00))\n      dup1\n      0xa507a53d\n      eq\n      tag_2\n      jumpi\n    tag_1:\n      0x00\n      dup1\n      revert\n        /* \"contracts/SenderSingle.sol\":753:1887  function sendToProposal(... */\n    tag_2:\n      tag_3\n      0x04\n      dup1\n      calldatasize\n      sub\n      dup2\n      add\n      swap1\n      tag_4\n      swap2\n      swap1\n      tag_5\n      jump\t// in\n    tag_4:\n      tag_6\n      jump\t// in\n    tag_3:\n      stop\n    tag_6:\n        /* \"contracts/SenderSingle.sol\":1071:1091  address tokenAddress */\n      0x00\n        /* \"contracts/SenderSingle.sol\":1094:1101  gateway */\n      immutable(\"0x789bcdf275fa270780a52ae3b79bb1ce0fda7e0aaad87b57b74bb99ac290714a\")\n        /* \"contracts/SenderSingle.sol\":1094:1116  gateway.tokenAddresses */\n      0xffffffffffffffffffffffffffffffffffffffff\n      and\n      0x935b13f6\n        /* \"contracts/SenderSingle.sol\":1117:1123  symbol */\n      dup6\n      dup6\n        /* \"contracts/SenderSingle.sol\":1094:1124  gateway.tokenAddresses(symbol) */\n      mload(0x40)\n      dup4\n      0xffffffff\n      and\n      0xe0\n      shl\n      dup2\n      mstore\n      0x04\n      add\n      tag_8\n      swap3\n      swap2\n      swap1\n      tag_9\n      jump\t// in\n    tag_8:\n      0x20\n      mload(0x40)\n      dup1\n      dup4\n      sub\n      dup2\n      dup7\n      gas\n      staticcall\n      iszero\n      dup1\n      iszero\n      tag_11\n      jumpi\n      returndatasize\n      0x00\n      dup1\n      returndatacopy\n      revert(0x00, returndatasize)\n    tag_11:\n      pop\n      pop\n      pop\n      pop\n      mload(0x40)\n      returndatasize\n      not(0x1f)\n      0x1f\n      dup3\n      add\n      and\n      dup3\n      add\n      dup1\n      0x40\n      mstore\n      pop\n      dup2\n      add\n      swap1\n      tag_12\n      swap2\n      swap1\n      tag_13\n      jump\t// in\n    tag_12:\n        /* \"contracts/SenderSingle.sol\":1071:1124  address tokenAddress = gateway.tokenAddresses(symbol) */\n      swap1\n      pop\n        /* \"contracts/SenderSingle.sol\":1142:1154  tokenAddress */\n      dup1\n        /* \"contracts/SenderSingle.sol\":1135:1168  IERC20(tokenAddress).transferFrom */\n      0xffffffffffffffffffffffffffffffffffffffff\n      and\n      0x23b872dd\n        /* \"contracts/SenderSingle.sol\":1169:1179  msg.sender */\n      caller\n        /* \"contracts/SenderSingle.sol\":1189:1193  this */\n      address\n        /* \"contracts/SenderSingle.sol\":1196:1202  amount */\n      dup6\n        /* \"contracts/SenderSingle.sol\":1135:1203  IERC20(tokenAddress).transferFrom(msg.sender, address(this), amount) */\n      mload(0x40)\n      dup5\n      0xffffffff\n      and\n      0xe0\n      shl\n      dup2\n      mstore\n      0x04\n      add\n      tag_14\n      swap4\n      swap3\n      swap2\n      swap1\n      tag_15\n      jump\t// in\n    tag_14:\n      0x20\n      mload(0x40)\n      dup1\n      dup4\n      sub\n      dup2\n      0x00\n      dup8\n      gas\n      call\n      iszero\n      dup1\n      iszero\n      tag_17\n      jumpi\n      returndatasize\n      0x00\n      dup1\n      returndatacopy\n      revert(0x00, returndatasize)\n    tag_17:\n      pop\n      pop\n      pop\n      pop\n      mload(0x40)\n      returndatasize\n      not(0x1f)\n      0x1f\n      dup3\n      add\n      and\n      dup3\n      add\n      dup1\n      0x40\n      mstore\n      pop\n      dup2\n      add\n      swap1\n      tag_18\n      swap2\n      swap1\n      tag_19\n      jump\t// in\n    tag_18:\n      pop\n        /* \"contracts/SenderSingle.sol\":1221:1233  tokenAddress */\n      dup1\n        /* \"contracts/SenderSingle.sol\":1214:1242  IERC20(tokenAddress).approve */\n      0xffffffffffffffffffffffffffffffffffffffff\n      and\n      0x095ea7b3\n        /* \"contracts/SenderSingle.sol\":1251:1258  gateway */\n      immutable(\"0x789bcdf275fa270780a52ae3b79bb1ce0fda7e0aaad87b57b74bb99ac290714a\")\n        /* \"contracts/SenderSingle.sol\":1261:1267  amount */\n      dup5\n        /* \"contracts/SenderSingle.sol\":1214:1268  IERC20(tokenAddress).approve(address(gateway), amount) */\n      mload(0x40)\n      dup4\n      0xffffffff\n      and\n      0xe0\n      shl\n      dup2\n      mstore\n      0x04\n      add\n      tag_20\n      swap3\n      swap2\n      swap1\n      tag_21\n      jump\t// in\n    tag_20:\n      0x20\n      mload(0x40)\n      dup1\n      dup4\n      sub\n      dup2\n      0x00\n      dup8\n      gas\n      call\n      iszero\n      dup1\n      iszero\n      tag_23\n      jumpi\n      returndatasize\n      0x00\n      dup1\n      returndatacopy\n      revert(0x00, returndatasize)\n    tag_23:\n      pop\n      pop\n      pop\n      pop\n      mload(0x40)\n      returndatasize\n      not(0x1f)\n      0x1f\n      dup3\n      add\n      and\n      dup3\n      add\n      dup1\n      0x40\n      mstore\n      pop\n      dup2\n      add\n      swap1\n      tag_24\n      swap2\n      swap1\n      tag_19\n      jump\t// in\n    tag_24:\n      pop\n        /* \"contracts/SenderSingle.sol\":1279:1299  bytes memory payload */\n      0x00\n        /* \"contracts/SenderSingle.sol\":1313:1328  proposalAddress */\n      dup8\n        /* \"contracts/SenderSingle.sol\":1330:1341  _proposalId */\n      dup8\n        /* \"contracts/SenderSingle.sol\":1343:1354  _voteOption */\n      dup8\n        /* \"contracts/SenderSingle.sol\":1302:1355  abi.encode(proposalAddress, _proposalId, _voteOption) */\n      add(0x20, mload(0x40))\n      tag_25\n      swap4\n      swap3\n      swap2\n      swap1\n      tag_26\n      jump\t// in\n    tag_25:\n      mload(0x40)\n      0x20\n      dup2\n      dup4\n      sub\n      sub\n      dup2\n      mstore\n      swap1\n      0x40\n      mstore\n        /* \"contracts/SenderSingle.sol\":1279:1355  bytes memory payload = abi.encode(proposalAddress, _proposalId, _voteOption) */\n      swap1\n      pop\n        /* \"contracts/SenderSingle.sol\":1382:1383  0 */\n      0x00\n        /* \"contracts/SenderSingle.sol\":1370:1379  msg.value */\n      callvalue\n        /* \"contracts/SenderSingle.sol\":1370:1383  msg.value > 0 */\n      gt\n        /* \"contracts/SenderSingle.sol\":1366:1701  if (msg.value > 0) {... */\n      iszero\n      tag_27\n      jumpi\n        /* \"contracts/SenderSingle.sol\":1400:1410  gasService */\n      immutable(\"0x1a192fabce13988b84994d4296e6cdc418d55e2f1d7f942188d4040b94fc57ac\")\n        /* \"contracts/SenderSingle.sol\":1400:1447  gasService.payNativeGasForContractCallWithToken */\n      0xffffffffffffffffffffffffffffffffffffffff\n      and\n      0xc62c2002\n        /* \"contracts/SenderSingle.sol\":1455:1464  msg.value */\n      callvalue\n        /* \"contracts/SenderSingle.sol\":1492:1496  this */\n      address\n        /* \"contracts/SenderSingle.sol\":1516:1532  destinationChain */\n      dup16\n      dup16\n        /* \"contracts/SenderSingle.sol\":1551:1569  destinationAddress */\n      dup16\n      dup16\n        /* \"contracts/SenderSingle.sol\":1588:1595  payload */\n      dup9\n        /* \"contracts/SenderSingle.sol\":1614:1620  symbol */\n      dup14\n      dup14\n        /* \"contracts/SenderSingle.sol\":1639:1645  amount */\n      dup14\n        /* \"contracts/SenderSingle.sol\":1664:1674  msg.sender */\n      caller\n        /* \"contracts/SenderSingle.sol\":1400:1689  gasService.payNativeGasForContractCallWithToken{value: msg.value}(... */\n      mload(0x40)\n      dup13\n      0xffffffff\n      and\n      0xe0\n      shl\n      dup2\n      mstore\n      0x04\n      add\n      tag_28\n      swap11\n      swap10\n      swap9\n      swap8\n      swap7\n      swap6\n      swap5\n      swap4\n      swap3\n      swap2\n      swap1\n      tag_29\n      jump\t// in\n    tag_28:\n      0x00\n      mload(0x40)\n      dup1\n      dup4\n      sub\n      dup2\n      dup6\n      dup9\n      dup1\n      extcodesize\n      iszero\n      dup1\n      iszero\n      tag_30\n      jumpi\n      0x00\n      dup1\n      revert\n    tag_30:\n      pop\n      gas\n      call\n      iszero\n      dup1\n      iszero\n      tag_32\n      jumpi\n      returndatasize\n      0x00\n      dup1\n      returndatacopy\n      revert(0x00, returndatasize)\n    tag_32:\n      pop\n      pop\n      pop\n      pop\n      pop\n        /* \"contracts/SenderSingle.sol\":1366:1701  if (msg.value > 0) {... */\n    tag_27:\n        /* \"contracts/SenderSingle.sol\":1711:1718  gateway */\n      immutable(\"0x789bcdf275fa270780a52ae3b79bb1ce0fda7e0aaad87b57b74bb99ac290714a\")\n        /* \"contracts/SenderSingle.sol\":1711:1740  gateway.callContractWithToken */\n      0xffffffffffffffffffffffffffffffffffffffff\n      and\n      0xb5417084\n        /* \"contracts/SenderSingle.sol\":1755:1771  destinationChain */\n      dup14\n      dup14\n        /* \"contracts/SenderSingle.sol\":1786:1804  destinationAddress */\n      dup14\n      dup14\n        /* \"contracts/SenderSingle.sol\":1819:1826  payload */\n      dup7\n        /* \"contracts/SenderSingle.sol\":1841:1847  symbol */\n      dup12\n      dup12\n        /* \"contracts/SenderSingle.sol\":1862:1868  amount */\n      dup12\n        /* \"contracts/SenderSingle.sol\":1711:1879  gateway.callContractWithToken(... */\n      mload(0x40)\n      dup10\n      0xffffffff\n      and\n      0xe0\n      shl\n      dup2\n      mstore\n      0x04\n      add\n      tag_33\n      swap9\n      swap8\n      swap7\n      swap6\n      swap5\n      swap4\n      swap3\n      swap2\n      swap1\n      tag_34\n      jump\t// in\n    tag_33:\n      0x00\n      mload(0x40)\n      dup1\n      dup4\n      sub\n      dup2\n      0x00\n      dup8\n      dup1\n      extcodesize\n      iszero\n      dup1\n      iszero\n      tag_35\n      jumpi\n      0x00\n      dup1\n      revert\n    tag_35:\n      pop\n      gas\n      call\n      iszero\n      dup1\n      iszero\n      tag_37\n      jumpi\n      returndatasize\n      0x00\n      dup1\n      returndatacopy\n      revert(0x00, returndatasize)\n    tag_37:\n      pop\n      pop\n      pop\n      pop\n        /* \"contracts/SenderSingle.sol\":1060:1887  {... */\n      pop\n      pop\n        /* \"contracts/SenderSingle.sol\":753:1887  function sendToProposal(... */\n      pop\n      pop\n      pop\n      pop\n      pop\n      pop\n      pop\n      pop\n      pop\n      pop\n      jump\t// out\n        /* \"#utility.yul\":88:205   */\n    tag_39:\n        /* \"#utility.yul\":197:198   */\n      0x00\n        /* \"#utility.yul\":194:195   */\n      dup1\n        /* \"#utility.yul\":187:199   */\n      revert\n        /* \"#utility.yul\":211:328   */\n    tag_40:\n        /* \"#utility.yul\":320:321   */\n      0x00\n        /* \"#utility.yul\":317:318   */\n      dup1\n        /* \"#utility.yul\":310:322   */\n      revert\n        /* \"#utility.yul\":334:451   */\n    tag_41:\n        /* \"#utility.yul\":443:444   */\n      0x00\n        /* \"#utility.yul\":440:441   */\n      dup1\n        /* \"#utility.yul\":433:445   */\n      revert\n        /* \"#utility.yul\":457:574   */\n    tag_42:\n        /* \"#utility.yul\":566:567   */\n      0x00\n        /* \"#utility.yul\":563:564   */\n      dup1\n        /* \"#utility.yul\":556:568   */\n      revert\n        /* \"#utility.yul\":580:697   */\n    tag_43:\n        /* \"#utility.yul\":689:690   */\n      0x00\n        /* \"#utility.yul\":686:687   */\n      dup1\n        /* \"#utility.yul\":679:691   */\n      revert\n        /* \"#utility.yul\":717:1270   */\n    tag_44:\n        /* \"#utility.yul\":775:783   */\n      0x00\n        /* \"#utility.yul\":785:791   */\n      dup1\n        /* \"#utility.yul\":835:838   */\n      dup4\n        /* \"#utility.yul\":828:832   */\n      0x1f\n        /* \"#utility.yul\":820:826   */\n      dup5\n        /* \"#utility.yul\":816:833   */\n      add\n        /* \"#utility.yul\":812:839   */\n      slt\n        /* \"#utility.yul\":802:924   */\n      tag_81\n      jumpi\n        /* \"#utility.yul\":843:922   */\n      tag_82\n      tag_41\n      jump\t// in\n    tag_82:\n        /* \"#utility.yul\":802:924   */\n    tag_81:\n        /* \"#utility.yul\":956:962   */\n      dup3\n        /* \"#utility.yul\":943:963   */\n      calldataload\n        /* \"#utility.yul\":933:963   */\n      swap1\n      pop\n        /* \"#utility.yul\":986:1004   */\n      0xffffffffffffffff\n        /* \"#utility.yul\":978:984   */\n      dup2\n        /* \"#utility.yul\":975:1005   */\n      gt\n        /* \"#utility.yul\":972:1089   */\n      iszero\n      tag_83\n      jumpi\n        /* \"#utility.yul\":1008:1087   */\n      tag_84\n      tag_42\n      jump\t// in\n    tag_84:\n        /* \"#utility.yul\":972:1089   */\n    tag_83:\n        /* \"#utility.yul\":1122:1126   */\n      0x20\n        /* \"#utility.yul\":1114:1120   */\n      dup4\n        /* \"#utility.yul\":1110:1127   */\n      add\n        /* \"#utility.yul\":1098:1127   */\n      swap2\n      pop\n        /* \"#utility.yul\":1176:1179   */\n      dup4\n        /* \"#utility.yul\":1168:1172   */\n      0x01\n        /* \"#utility.yul\":1160:1166   */\n      dup3\n        /* \"#utility.yul\":1156:1173   */\n      mul\n        /* \"#utility.yul\":1146:1154   */\n      dup4\n        /* \"#utility.yul\":1142:1174   */\n      add\n        /* \"#utility.yul\":1139:1180   */\n      gt\n        /* \"#utility.yul\":1136:1264   */\n      iszero\n      tag_85\n      jumpi\n        /* \"#utility.yul\":1183:1262   */\n      tag_86\n      tag_43\n      jump\t// in\n    tag_86:\n        /* \"#utility.yul\":1136:1264   */\n    tag_85:\n        /* \"#utility.yul\":717:1270   */\n      swap3\n      pop\n      swap3\n      swap1\n      pop\n      jump\t// out\n        /* \"#utility.yul\":1276:1402   */\n    tag_45:\n        /* \"#utility.yul\":1313:1320   */\n      0x00\n        /* \"#utility.yul\":1353:1395   */\n      0xffffffffffffffffffffffffffffffffffffffff\n        /* \"#utility.yul\":1346:1351   */\n      dup3\n        /* \"#utility.yul\":1342:1396   */\n      and\n        /* \"#utility.yul\":1331:1396   */\n      swap1\n      pop\n        /* \"#utility.yul\":1276:1402   */\n      swap2\n      swap1\n      pop\n      jump\t// out\n        /* \"#utility.yul\":1408:1504   */\n    tag_46:\n        /* \"#utility.yul\":1445:1452   */\n      0x00\n        /* \"#utility.yul\":1474:1498   */\n      tag_89\n        /* \"#utility.yul\":1492:1497   */\n      dup3\n        /* \"#utility.yul\":1474:1498   */\n      tag_45\n      jump\t// in\n    tag_89:\n        /* \"#utility.yul\":1463:1498   */\n      swap1\n      pop\n        /* \"#utility.yul\":1408:1504   */\n      swap2\n      swap1\n      pop\n      jump\t// out\n        /* \"#utility.yul\":1510:1632   */\n    tag_47:\n        /* \"#utility.yul\":1583:1607   */\n      tag_91\n        /* \"#utility.yul\":1601:1606   */\n      dup2\n        /* \"#utility.yul\":1583:1607   */\n      tag_46\n      jump\t// in\n    tag_91:\n        /* \"#utility.yul\":1576:1581   */\n      dup2\n        /* \"#utility.yul\":1573:1608   */\n      eq\n        /* \"#utility.yul\":1563:1626   */\n      tag_92\n      jumpi\n        /* \"#utility.yul\":1622:1623   */\n      0x00\n        /* \"#utility.yul\":1619:1620   */\n      dup1\n        /* \"#utility.yul\":1612:1624   */\n      revert\n        /* \"#utility.yul\":1563:1626   */\n    tag_92:\n        /* \"#utility.yul\":1510:1632   */\n      pop\n      jump\t// out\n        /* \"#utility.yul\":1638:1777   */\n    tag_48:\n        /* \"#utility.yul\":1684:1689   */\n      0x00\n        /* \"#utility.yul\":1722:1728   */\n      dup2\n        /* \"#utility.yul\":1709:1729   */\n      calldataload\n        /* \"#utility.yul\":1700:1729   */\n      swap1\n      pop\n        /* \"#utility.yul\":1738:1771   */\n      tag_94\n        /* \"#utility.yul\":1765:1770   */\n      dup2\n        /* \"#utility.yul\":1738:1771   */\n      tag_47\n      jump\t// in\n    tag_94:\n        /* \"#utility.yul\":1638:1777   */\n      swap3\n      swap2\n      pop\n      pop\n      jump\t// out\n        /* \"#utility.yul\":1783:1860   */\n    tag_49:\n        /* \"#utility.yul\":1820:1827   */\n      0x00\n        /* \"#utility.yul\":1849:1854   */\n      dup2\n        /* \"#utility.yul\":1838:1854   */\n      swap1\n      pop\n        /* \"#utility.yul\":1783:1860   */\n      swap2\n      swap1\n      pop\n      jump\t// out\n        /* \"#utility.yul\":1866:1988   */\n    tag_50:\n        /* \"#utility.yul\":1939:1963   */\n      tag_97\n        /* \"#utility.yul\":1957:1962   */\n      dup2\n        /* \"#utility.yul\":1939:1963   */\n      tag_49\n      jump\t// in\n    tag_97:\n        /* \"#utility.yul\":1932:1937   */\n      dup2\n        /* \"#utility.yul\":1929:1964   */\n      eq\n        /* \"#utility.yul\":1919:1982   */\n      tag_98\n      jumpi\n        /* \"#utility.yul\":1978:1979   */\n      0x00\n        /* \"#utility.yul\":1975:1976   */\n      dup1\n        /* \"#utility.yul\":1968:1980   */\n      revert\n        /* \"#utility.yul\":1919:1982   */\n    tag_98:\n        /* \"#utility.yul\":1866:1988   */\n      pop\n      jump\t// out\n        /* \"#utility.yul\":1994:2133   */\n    tag_51:\n        /* \"#utility.yul\":2040:2045   */\n      0x00\n        /* \"#utility.yul\":2078:2084   */\n      dup2\n        /* \"#utility.yul\":2065:2085   */\n      calldataload\n        /* \"#utility.yul\":2056:2085   */\n      swap1\n      pop\n        /* \"#utility.yul\":2094:2127   */\n      tag_100\n        /* \"#utility.yul\":2121:2126   */\n      dup2\n        /* \"#utility.yul\":2094:2127   */\n      tag_50\n      jump\t// in\n    tag_100:\n        /* \"#utility.yul\":1994:2133   */\n      swap3\n      swap2\n      pop\n      pop\n      jump\t// out\n        /* \"#utility.yul\":2139:2252   */\n    tag_52:\n        /* \"#utility.yul\":2226:2227   */\n      0x04\n        /* \"#utility.yul\":2219:2224   */\n      dup2\n        /* \"#utility.yul\":2216:2228   */\n      lt\n        /* \"#utility.yul\":2206:2246   */\n      tag_102\n      jumpi\n        /* \"#utility.yul\":2242:2243   */\n      0x00\n        /* \"#utility.yul\":2239:2240   */\n      dup1\n        /* \"#utility.yul\":2232:2244   */\n      revert\n        /* \"#utility.yul\":2206:2246   */\n    tag_102:\n        /* \"#utility.yul\":2139:2252   */\n      pop\n      jump\t// out\n        /* \"#utility.yul\":2258:2425   */\n    tag_53:\n        /* \"#utility.yul\":2318:2323   */\n      0x00\n        /* \"#utility.yul\":2356:2362   */\n      dup2\n        /* \"#utility.yul\":2343:2363   */\n      calldataload\n        /* \"#utility.yul\":2334:2363   */\n      swap1\n      pop\n        /* \"#utility.yul\":2372:2419   */\n      tag_104\n        /* \"#utility.yul\":2413:2418   */\n      dup2\n        /* \"#utility.yul\":2372:2419   */\n      tag_52\n      jump\t// in\n    tag_104:\n        /* \"#utility.yul\":2258:2425   */\n      swap3\n      swap2\n      pop\n      pop\n      jump\t// out\n        /* \"#utility.yul\":2431:4262   */\n    tag_5:\n        /* \"#utility.yul\":2594:2600   */\n      0x00\n        /* \"#utility.yul\":2602:2608   */\n      dup1\n        /* \"#utility.yul\":2610:2616   */\n      0x00\n        /* \"#utility.yul\":2618:2624   */\n      dup1\n        /* \"#utility.yul\":2626:2632   */\n      0x00\n        /* \"#utility.yul\":2634:2640   */\n      dup1\n        /* \"#utility.yul\":2642:2648   */\n      0x00\n        /* \"#utility.yul\":2650:2656   */\n      dup1\n        /* \"#utility.yul\":2658:2664   */\n      0x00\n        /* \"#utility.yul\":2666:2672   */\n      dup1\n        /* \"#utility.yul\":2715:2718   */\n      0xe0\n        /* \"#utility.yul\":2703:2712   */\n      dup12\n        /* \"#utility.yul\":2694:2701   */\n      dup14\n        /* \"#utility.yul\":2690:2713   */\n      sub\n        /* \"#utility.yul\":2686:2719   */\n      slt\n        /* \"#utility.yul\":2683:2803   */\n      iszero\n      tag_106\n      jumpi\n        /* \"#utility.yul\":2722:2801   */\n      tag_107\n      tag_39\n      jump\t// in\n    tag_107:\n        /* \"#utility.yul\":2683:2803   */\n    tag_106:\n        /* \"#utility.yul\":2870:2871   */\n      0x00\n        /* \"#utility.yul\":2859:2868   */\n      dup12\n        /* \"#utility.yul\":2855:2872   */\n      add\n        /* \"#utility.yul\":2842:2873   */\n      calldataload\n        /* \"#utility.yul\":2900:2918   */\n      0xffffffffffffffff\n        /* \"#utility.yul\":2892:2898   */\n      dup2\n        /* \"#utility.yul\":2889:2919   */\n      gt\n        /* \"#utility.yul\":2886:3003   */\n      iszero\n      tag_108\n      jumpi\n        /* \"#utility.yul\":2922:3001   */\n      tag_109\n      tag_40\n      jump\t// in\n    tag_109:\n        /* \"#utility.yul\":2886:3003   */\n    tag_108:\n        /* \"#utility.yul\":3035:3100   */\n      tag_110\n        /* \"#utility.yul\":3092:3099   */\n      dup14\n        /* \"#utility.yul\":3083:3089   */\n      dup3\n        /* \"#utility.yul\":3072:3081   */\n      dup15\n        /* \"#utility.yul\":3068:3090   */\n      add\n        /* \"#utility.yul\":3035:3100   */\n      tag_44\n      jump\t// in\n    tag_110:\n        /* \"#utility.yul\":3017:3100   */\n      swap11\n      pop\n      swap11\n      pop\n        /* \"#utility.yul\":2813:3110   */\n      pop\n        /* \"#utility.yul\":3177:3179   */\n      0x20\n        /* \"#utility.yul\":3166:3175   */\n      dup12\n        /* \"#utility.yul\":3162:3180   */\n      add\n        /* \"#utility.yul\":3149:3181   */\n      calldataload\n        /* \"#utility.yul\":3208:3226   */\n      0xffffffffffffffff\n        /* \"#utility.yul\":3200:3206   */\n      dup2\n        /* \"#utility.yul\":3197:3227   */\n      gt\n        /* \"#utility.yul\":3194:3311   */\n      iszero\n      tag_111\n      jumpi\n        /* \"#utility.yul\":3230:3309   */\n      tag_112\n      tag_40\n      jump\t// in\n    tag_112:\n        /* \"#utility.yul\":3194:3311   */\n    tag_111:\n        /* \"#utility.yul\":3343:3408   */\n      tag_113\n        /* \"#utility.yul\":3400:3407   */\n      dup14\n        /* \"#utility.yul\":3391:3397   */\n      dup3\n        /* \"#utility.yul\":3380:3389   */\n      dup15\n        /* \"#utility.yul\":3376:3398   */\n      add\n        /* \"#utility.yul\":3343:3408   */\n      tag_44\n      jump\t// in\n    tag_113:\n        /* \"#utility.yul\":3325:3408   */\n      swap9\n      pop\n      swap9\n      pop\n        /* \"#utility.yul\":3120:3418   */\n      pop\n        /* \"#utility.yul\":3457:3459   */\n      0x40\n        /* \"#utility.yul\":3483:3536   */\n      tag_114\n        /* \"#utility.yul\":3528:3535   */\n      dup14\n        /* \"#utility.yul\":3519:3525   */\n      dup3\n        /* \"#utility.yul\":3508:3517   */\n      dup15\n        /* \"#utility.yul\":3504:3526   */\n      add\n        /* \"#utility.yul\":3483:3536   */\n      tag_48\n      jump\t// in\n    tag_114:\n        /* \"#utility.yul\":3473:3536   */\n      swap7\n      pop\n        /* \"#utility.yul\":3428:3546   */\n      pop\n        /* \"#utility.yul\":3585:3587   */\n      0x60\n        /* \"#utility.yul\":3611:3664   */\n      tag_115\n        /* \"#utility.yul\":3656:3663   */\n      dup14\n        /* \"#utility.yul\":3647:3653   */\n      dup3\n        /* \"#utility.yul\":3636:3645   */\n      dup15\n        /* \"#utility.yul\":3632:3654   */\n      add\n        /* \"#utility.yul\":3611:3664   */\n      tag_51\n      jump\t// in\n    tag_115:\n        /* \"#utility.yul\":3601:3664   */\n      swap6\n      pop\n        /* \"#utility.yul\":3556:3674   */\n      pop\n        /* \"#utility.yul\":3713:3716   */\n      0x80\n        /* \"#utility.yul\":3740:3807   */\n      tag_116\n        /* \"#utility.yul\":3799:3806   */\n      dup14\n        /* \"#utility.yul\":3790:3796   */\n      dup3\n        /* \"#utility.yul\":3779:3788   */\n      dup15\n        /* \"#utility.yul\":3775:3797   */\n      add\n        /* \"#utility.yul\":3740:3807   */\n      tag_53\n      jump\t// in\n    tag_116:\n        /* \"#utility.yul\":3730:3807   */\n      swap5\n      pop\n        /* \"#utility.yul\":3684:3817   */\n      pop\n        /* \"#utility.yul\":3884:3887   */\n      0xa0\n        /* \"#utility.yul\":3873:3882   */\n      dup12\n        /* \"#utility.yul\":3869:3888   */\n      add\n        /* \"#utility.yul\":3856:3889   */\n      calldataload\n        /* \"#utility.yul\":3916:3934   */\n      0xffffffffffffffff\n        /* \"#utility.yul\":3908:3914   */\n      dup2\n        /* \"#utility.yul\":3905:3935   */\n      gt\n        /* \"#utility.yul\":3902:4019   */\n      iszero\n      tag_117\n      jumpi\n        /* \"#utility.yul\":3938:4017   */\n      tag_118\n      tag_40\n      jump\t// in\n    tag_118:\n        /* \"#utility.yul\":3902:4019   */\n    tag_117:\n        /* \"#utility.yul\":4051:4116   */\n      tag_119\n        /* \"#utility.yul\":4108:4115   */\n      dup14\n        /* \"#utility.yul\":4099:4105   */\n      dup3\n        /* \"#utility.yul\":4088:4097   */\n      dup15\n        /* \"#utility.yul\":4084:4106   */\n      add\n        /* \"#utility.yul\":4051:4116   */\n      tag_44\n      jump\t// in\n    tag_119:\n        /* \"#utility.yul\":4033:4116   */\n      swap4\n      pop\n      swap4\n      pop\n        /* \"#utility.yul\":3827:4126   */\n      pop\n        /* \"#utility.yul\":4165:4168   */\n      0xc0\n        /* \"#utility.yul\":4192:4245   */\n      tag_120\n        /* \"#utility.yul\":4237:4244   */\n      dup14\n        /* \"#utility.yul\":4228:4234   */\n      dup3\n        /* \"#utility.yul\":4217:4226   */\n      dup15\n        /* \"#utility.yul\":4213:4235   */\n      add\n        /* \"#utility.yul\":4192:4245   */\n      tag_51\n      jump\t// in\n    tag_120:\n        /* \"#utility.yul\":4182:4245   */\n      swap2\n      pop\n        /* \"#utility.yul\":4136:4255   */\n      pop\n        /* \"#utility.yul\":2431:4262   */\n      swap3\n      swap6\n      swap9\n      swap12\n      swap2\n      swap5\n      swap8\n      swap11\n      pop\n      swap3\n      swap6\n      swap9\n      pop\n      jump\t// out\n        /* \"#utility.yul\":4268:4437   */\n    tag_54:\n        /* \"#utility.yul\":4352:4363   */\n      0x00\n        /* \"#utility.yul\":4386:4392   */\n      dup3\n        /* \"#utility.yul\":4381:4384   */\n      dup3\n        /* \"#utility.yul\":4374:4393   */\n      mstore\n        /* \"#utility.yul\":4426:4430   */\n      0x20\n        /* \"#utility.yul\":4421:4424   */\n      dup3\n        /* \"#utility.yul\":4417:4431   */\n      add\n        /* \"#utility.yul\":4402:4431   */\n      swap1\n      pop\n        /* \"#utility.yul\":4268:4437   */\n      swap3\n      swap2\n      pop\n      pop\n      jump\t// out\n        /* \"#utility.yul\":4443:4589   */\n    tag_55:\n        /* \"#utility.yul\":4540:4546   */\n      dup3\n        /* \"#utility.yul\":4535:4538   */\n      dup2\n        /* \"#utility.yul\":4530:4533   */\n      dup4\n        /* \"#utility.yul\":4517:4547   */\n      calldatacopy\n        /* \"#utility.yul\":4581:4582   */\n      0x00\n        /* \"#utility.yul\":4572:4578   */\n      dup4\n        /* \"#utility.yul\":4567:4570   */\n      dup4\n        /* \"#utility.yul\":4563:4579   */\n      add\n        /* \"#utility.yul\":4556:4583   */\n      mstore\n        /* \"#utility.yul\":4443:4589   */\n      pop\n      pop\n      pop\n      jump\t// out\n        /* \"#utility.yul\":4595:4697   */\n    tag_56:\n        /* \"#utility.yul\":4636:4642   */\n      0x00\n        /* \"#utility.yul\":4687:4689   */\n      0x1f\n        /* \"#utility.yul\":4683:4690   */\n      not\n        /* \"#utility.yul\":4678:4680   */\n      0x1f\n        /* \"#utility.yul\":4671:4676   */\n      dup4\n        /* \"#utility.yul\":4667:4681   */\n      add\n        /* \"#utility.yul\":4663:4691   */\n      and\n        /* \"#utility.yul\":4653:4691   */\n      swap1\n      pop\n        /* \"#utility.yul\":4595:4697   */\n      swap2\n      swap1\n      pop\n      jump\t// out\n        /* \"#utility.yul\":4727:5044   */\n    tag_57:\n        /* \"#utility.yul\":4825:4828   */\n      0x00\n        /* \"#utility.yul\":4846:4917   */\n      tag_125\n        /* \"#utility.yul\":4910:4916   */\n      dup4\n        /* \"#utility.yul\":4905:4908   */\n      dup6\n        /* \"#utility.yul\":4846:4917   */\n      tag_54\n      jump\t// in\n    tag_125:\n        /* \"#utility.yul\":4839:4917   */\n      swap4\n      pop\n        /* \"#utility.yul\":4927:4983   */\n      tag_126\n        /* \"#utility.yul\":4976:4982   */\n      dup4\n        /* \"#utility.yul\":4971:4974   */\n      dup6\n        /* \"#utility.yul\":4964:4969   */\n      dup5\n        /* \"#utility.yul\":4927:4983   */\n      tag_55\n      jump\t// in\n    tag_126:\n        /* \"#utility.yul\":5008:5037   */\n      tag_127\n        /* \"#utility.yul\":5030:5036   */\n      dup4\n        /* \"#utility.yul\":5008:5037   */\n      tag_56\n      jump\t// in\n    tag_127:\n        /* \"#utility.yul\":5003:5006   */\n      dup5\n        /* \"#utility.yul\":4999:5038   */\n      add\n        /* \"#utility.yul\":4992:5038   */\n      swap1\n      pop\n        /* \"#utility.yul\":4727:5044   */\n      swap4\n      swap3\n      pop\n      pop\n      pop\n      jump\t// out\n        /* \"#utility.yul\":5050:5383   */\n    tag_9:\n        /* \"#utility.yul\":5173:5177   */\n      0x00\n        /* \"#utility.yul\":5211:5213   */\n      0x20\n        /* \"#utility.yul\":5200:5209   */\n      dup3\n        /* \"#utility.yul\":5196:5214   */\n      add\n        /* \"#utility.yul\":5188:5214   */\n      swap1\n      pop\n        /* \"#utility.yul\":5260:5269   */\n      dup2\n        /* \"#utility.yul\":5254:5258   */\n      dup2\n        /* \"#utility.yul\":5250:5270   */\n      sub\n        /* \"#utility.yul\":5246:5247   */\n      0x00\n        /* \"#utility.yul\":5235:5244   */\n      dup4\n        /* \"#utility.yul\":5231:5248   */\n      add\n        /* \"#utility.yul\":5224:5271   */\n      mstore\n        /* \"#utility.yul\":5288:5376   */\n      tag_129\n        /* \"#utility.yul\":5371:5375   */\n      dup2\n        /* \"#utility.yul\":5362:5368   */\n      dup5\n        /* \"#utility.yul\":5354:5360   */\n      dup7\n        /* \"#utility.yul\":5288:5376   */\n      tag_57\n      jump\t// in\n    tag_129:\n        /* \"#utility.yul\":5280:5376   */\n      swap1\n      pop\n        /* \"#utility.yul\":5050:5383   */\n      swap4\n      swap3\n      pop\n      pop\n      pop\n      jump\t// out\n        /* \"#utility.yul\":5389:5532   */\n    tag_58:\n        /* \"#utility.yul\":5446:5451   */\n      0x00\n        /* \"#utility.yul\":5477:5483   */\n      dup2\n        /* \"#utility.yul\":5471:5484   */\n      mload\n        /* \"#utility.yul\":5462:5484   */\n      swap1\n      pop\n        /* \"#utility.yul\":5493:5526   */\n      tag_131\n        /* \"#utility.yul\":5520:5525   */\n      dup2\n        /* \"#utility.yul\":5493:5526   */\n      tag_47\n      jump\t// in\n    tag_131:\n        /* \"#utility.yul\":5389:5532   */\n      swap3\n      swap2\n      pop\n      pop\n      jump\t// out\n        /* \"#utility.yul\":5538:5889   */\n    tag_13:\n        /* \"#utility.yul\":5608:5614   */\n      0x00\n        /* \"#utility.yul\":5657:5659   */\n      0x20\n        /* \"#utility.yul\":5645:5654   */\n      dup3\n        /* \"#utility.yul\":5636:5643   */\n      dup5\n        /* \"#utility.yul\":5632:5655   */\n      sub\n        /* \"#utility.yul\":5628:5660   */\n      slt\n        /* \"#utility.yul\":5625:5744   */\n      iszero\n      tag_133\n      jumpi\n        /* \"#utility.yul\":5663:5742   */\n      tag_134\n      tag_39\n      jump\t// in\n    tag_134:\n        /* \"#utility.yul\":5625:5744   */\n    tag_133:\n        /* \"#utility.yul\":5783:5784   */\n      0x00\n        /* \"#utility.yul\":5808:5872   */\n      tag_135\n        /* \"#utility.yul\":5864:5871   */\n      dup5\n        /* \"#utility.yul\":5855:5861   */\n      dup3\n        /* \"#utility.yul\":5844:5853   */\n      dup6\n        /* \"#utility.yul\":5840:5862   */\n      add\n        /* \"#utility.yul\":5808:5872   */\n      tag_58\n      jump\t// in\n    tag_135:\n        /* \"#utility.yul\":5798:5872   */\n      swap2\n      pop\n        /* \"#utility.yul\":5754:5882   */\n      pop\n        /* \"#utility.yul\":5538:5889   */\n      swap3\n      swap2\n      pop\n      pop\n      jump\t// out\n        /* \"#utility.yul\":5895:6013   */\n    tag_59:\n        /* \"#utility.yul\":5982:6006   */\n      tag_137\n        /* \"#utility.yul\":6000:6005   */\n      dup2\n        /* \"#utility.yul\":5982:6006   */\n      tag_46\n      jump\t// in\n    tag_137:\n        /* \"#utility.yul\":5977:5980   */\n      dup3\n        /* \"#utility.yul\":5970:6007   */\n      mstore\n        /* \"#utility.yul\":5895:6013   */\n      pop\n      pop\n      jump\t// out\n        /* \"#utility.yul\":6019:6137   */\n    tag_60:\n        /* \"#utility.yul\":6106:6130   */\n      tag_139\n        /* \"#utility.yul\":6124:6129   */\n      dup2\n        /* \"#utility.yul\":6106:6130   */\n      tag_49\n      jump\t// in\n    tag_139:\n        /* \"#utility.yul\":6101:6104   */\n      dup3\n        /* \"#utility.yul\":6094:6131   */\n      mstore\n        /* \"#utility.yul\":6019:6137   */\n      pop\n      pop\n      jump\t// out\n        /* \"#utility.yul\":6143:6585   */\n    tag_15:\n        /* \"#utility.yul\":6292:6296   */\n      0x00\n        /* \"#utility.yul\":6330:6332   */\n      0x60\n        /* \"#utility.yul\":6319:6328   */\n      dup3\n        /* \"#utility.yul\":6315:6333   */\n      add\n        /* \"#utility.yul\":6307:6333   */\n      swap1\n      pop\n        /* \"#utility.yul\":6343:6414   */\n      tag_141\n        /* \"#utility.yul\":6411:6412   */\n      0x00\n        /* \"#utility.yul\":6400:6409   */\n      dup4\n        /* \"#utility.yul\":6396:6413   */\n      add\n        /* \"#utility.yul\":6387:6393   */\n      dup7\n        /* \"#utility.yul\":6343:6414   */\n      tag_59\n      jump\t// in\n    tag_141:\n        /* \"#utility.yul\":6424:6496   */\n      tag_142\n        /* \"#utility.yul\":6492:6494   */\n      0x20\n        /* \"#utility.yul\":6481:6490   */\n      dup4\n        /* \"#utility.yul\":6477:6495   */\n      add\n        /* \"#utility.yul\":6468:6474   */\n      dup6\n        /* \"#utility.yul\":6424:6496   */\n      tag_59\n      jump\t// in\n    tag_142:\n        /* \"#utility.yul\":6506:6578   */\n      tag_143\n        /* \"#utility.yul\":6574:6576   */\n      0x40\n        /* \"#utility.yul\":6563:6572   */\n      dup4\n        /* \"#utility.yul\":6559:6577   */\n      add\n        /* \"#utility.yul\":6550:6556   */\n      dup5\n        /* \"#utility.yul\":6506:6578   */\n      tag_60\n      jump\t// in\n    tag_143:\n        /* \"#utility.yul\":6143:6585   */\n      swap5\n      swap4\n      pop\n      pop\n      pop\n      pop\n      jump\t// out\n        /* \"#utility.yul\":6591:6681   */\n    tag_61:\n        /* \"#utility.yul\":6625:6632   */\n      0x00\n        /* \"#utility.yul\":6668:6673   */\n      dup2\n        /* \"#utility.yul\":6661:6674   */\n      iszero\n        /* \"#utility.yul\":6654:6675   */\n      iszero\n        /* \"#utility.yul\":6643:6675   */\n      swap1\n      pop\n        /* \"#utility.yul\":6591:6681   */\n      swap2\n      swap1\n      pop\n      jump\t// out\n        /* \"#utility.yul\":6687:6803   */\n    tag_62:\n        /* \"#utility.yul\":6757:6778   */\n      tag_146\n        /* \"#utility.yul\":6772:6777   */\n      dup2\n        /* \"#utility.yul\":6757:6778   */\n      tag_61\n      jump\t// in\n    tag_146:\n        /* \"#utility.yul\":6750:6755   */\n      dup2\n        /* \"#utility.yul\":6747:6779   */\n      eq\n        /* \"#utility.yul\":6737:6797   */\n      tag_147\n      jumpi\n        /* \"#utility.yul\":6793:6794   */\n      0x00\n        /* \"#utility.yul\":6790:6791   */\n      dup1\n        /* \"#utility.yul\":6783:6795   */\n      revert\n        /* \"#utility.yul\":6737:6797   */\n    tag_147:\n        /* \"#utility.yul\":6687:6803   */\n      pop\n      jump\t// out\n        /* \"#utility.yul\":6809:6946   */\n    tag_63:\n        /* \"#utility.yul\":6863:6868   */\n      0x00\n        /* \"#utility.yul\":6894:6900   */\n      dup2\n        /* \"#utility.yul\":6888:6901   */\n      mload\n        /* \"#utility.yul\":6879:6901   */\n      swap1\n      pop\n        /* \"#utility.yul\":6910:6940   */\n      tag_149\n        /* \"#utility.yul\":6934:6939   */\n      dup2\n        /* \"#utility.yul\":6910:6940   */\n      tag_62\n      jump\t// in\n    tag_149:\n        /* \"#utility.yul\":6809:6946   */\n      swap3\n      swap2\n      pop\n      pop\n      jump\t// out\n        /* \"#utility.yul\":6952:7297   */\n    tag_19:\n        /* \"#utility.yul\":7019:7025   */\n      0x00\n        /* \"#utility.yul\":7068:7070   */\n      0x20\n        /* \"#utility.yul\":7056:7065   */\n      dup3\n        /* \"#utility.yul\":7047:7054   */\n      dup5\n        /* \"#utility.yul\":7043:7066   */\n      sub\n        /* \"#utility.yul\":7039:7071   */\n      slt\n        /* \"#utility.yul\":7036:7155   */\n      iszero\n      tag_151\n      jumpi\n        /* \"#utility.yul\":7074:7153   */\n      tag_152\n      tag_39\n      jump\t// in\n    tag_152:\n        /* \"#utility.yul\":7036:7155   */\n    tag_151:\n        /* \"#utility.yul\":7194:7195   */\n      0x00\n        /* \"#utility.yul\":7219:7280   */\n      tag_153\n        /* \"#utility.yul\":7272:7279   */\n      dup5\n        /* \"#utility.yul\":7263:7269   */\n      dup3\n        /* \"#utility.yul\":7252:7261   */\n      dup6\n        /* \"#utility.yul\":7248:7270   */\n      add\n        /* \"#utility.yul\":7219:7280   */\n      tag_63\n      jump\t// in\n    tag_153:\n        /* \"#utility.yul\":7209:7280   */\n      swap2\n      pop\n        /* \"#utility.yul\":7165:7290   */\n      pop\n        /* \"#utility.yul\":6952:7297   */\n      swap3\n      swap2\n      pop\n      pop\n      jump\t// out\n        /* \"#utility.yul\":7303:7635   */\n    tag_21:\n        /* \"#utility.yul\":7424:7428   */\n      0x00\n        /* \"#utility.yul\":7462:7464   */\n      0x40\n        /* \"#utility.yul\":7451:7460   */\n      dup3\n        /* \"#utility.yul\":7447:7465   */\n      add\n        /* \"#utility.yul\":7439:7465   */\n      swap1\n      pop\n        /* \"#utility.yul\":7475:7546   */\n      tag_155\n        /* \"#utility.yul\":7543:7544   */\n      0x00\n        /* \"#utility.yul\":7532:7541   */\n      dup4\n        /* \"#utility.yul\":7528:7545   */\n      add\n        /* \"#utility.yul\":7519:7525   */\n      dup6\n        /* \"#utility.yul\":7475:7546   */\n      tag_59\n      jump\t// in\n    tag_155:\n        /* \"#utility.yul\":7556:7628   */\n      tag_156\n        /* \"#utility.yul\":7624:7626   */\n      0x20\n        /* \"#utility.yul\":7613:7622   */\n      dup4\n        /* \"#utility.yul\":7609:7627   */\n      add\n        /* \"#utility.yul\":7600:7606   */\n      dup5\n        /* \"#utility.yul\":7556:7628   */\n      tag_60\n      jump\t// in\n    tag_156:\n        /* \"#utility.yul\":7303:7635   */\n      swap4\n      swap3\n      pop\n      pop\n      pop\n      jump\t// out\n        /* \"#utility.yul\":7641:7821   */\n    tag_64:\n        /* \"#utility.yul\":7689:7766   */\n      0x4e487b7100000000000000000000000000000000000000000000000000000000\n        /* \"#utility.yul\":7686:7687   */\n      0x00\n        /* \"#utility.yul\":7679:7767   */\n      mstore\n        /* \"#utility.yul\":7786:7790   */\n      0x21\n        /* \"#utility.yul\":7783:7784   */\n      0x04\n        /* \"#utility.yul\":7776:7791   */\n      mstore\n        /* \"#utility.yul\":7810:7814   */\n      0x24\n        /* \"#utility.yul\":7807:7808   */\n      0x00\n        /* \"#utility.yul\":7800:7815   */\n      revert\n        /* \"#utility.yul\":7827:7946   */\n    tag_65:\n        /* \"#utility.yul\":7914:7915   */\n      0x04\n        /* \"#utility.yul\":7907:7912   */\n      dup2\n        /* \"#utility.yul\":7904:7916   */\n      lt\n        /* \"#utility.yul\":7894:7940   */\n      tag_159\n      jumpi\n        /* \"#utility.yul\":7920:7938   */\n      tag_160\n      tag_64\n      jump\t// in\n    tag_160:\n        /* \"#utility.yul\":7894:7940   */\n    tag_159:\n        /* \"#utility.yul\":7827:7946   */\n      pop\n      jump\t// out\n        /* \"#utility.yul\":7952:8091   */\n    tag_66:\n        /* \"#utility.yul\":8003:8010   */\n      0x00\n        /* \"#utility.yul\":8032:8037   */\n      dup2\n        /* \"#utility.yul\":8021:8037   */\n      swap1\n      pop\n        /* \"#utility.yul\":8038:8085   */\n      tag_162\n        /* \"#utility.yul\":8079:8084   */\n      dup3\n        /* \"#utility.yul\":8038:8085   */\n      tag_65\n      jump\t// in\n    tag_162:\n        /* \"#utility.yul\":7952:8091   */\n      swap2\n      swap1\n      pop\n      jump\t// out\n        /* \"#utility.yul\":8097:8236   */\n    tag_67:\n        /* \"#utility.yul\":8159:8168   */\n      0x00\n        /* \"#utility.yul\":8192:8230   */\n      tag_164\n        /* \"#utility.yul\":8224:8229   */\n      dup3\n        /* \"#utility.yul\":8192:8230   */\n      tag_66\n      jump\t// in\n    tag_164:\n        /* \"#utility.yul\":8179:8230   */\n      swap1\n      pop\n        /* \"#utility.yul\":8097:8236   */\n      swap2\n      swap1\n      pop\n      jump\t// out\n        /* \"#utility.yul\":8242:8397   */\n    tag_68:\n        /* \"#utility.yul\":8341:8390   */\n      tag_166\n        /* \"#utility.yul\":8384:8389   */\n      dup2\n        /* \"#utility.yul\":8341:8390   */\n      tag_67\n      jump\t// in\n    tag_166:\n        /* \"#utility.yul\":8336:8339   */\n      dup3\n        /* \"#utility.yul\":8329:8391   */\n      mstore\n        /* \"#utility.yul\":8242:8397   */\n      pop\n      pop\n      jump\t// out\n        /* \"#utility.yul\":8403:8869   */\n    tag_26:\n        /* \"#utility.yul\":8564:8568   */\n      0x00\n        /* \"#utility.yul\":8602:8604   */\n      0x60\n        /* \"#utility.yul\":8591:8600   */\n      dup3\n        /* \"#utility.yul\":8587:8605   */\n      add\n        /* \"#utility.yul\":8579:8605   */\n      swap1\n      pop\n        /* \"#utility.yul\":8615:8686   */\n      tag_168\n        /* \"#utility.yul\":8683:8684   */\n      0x00\n        /* \"#utility.yul\":8672:8681   */\n      dup4\n        /* \"#utility.yul\":8668:8685   */\n      add\n        /* \"#utility.yul\":8659:8665   */\n      dup7\n        /* \"#utility.yul\":8615:8686   */\n      tag_59\n      jump\t// in\n    tag_168:\n        /* \"#utility.yul\":8696:8768   */\n      tag_169\n        /* \"#utility.yul\":8764:8766   */\n      0x20\n        /* \"#utility.yul\":8753:8762   */\n      dup4\n        /* \"#utility.yul\":8749:8767   */\n      add\n        /* \"#utility.yul\":8740:8746   */\n      dup6\n        /* \"#utility.yul\":8696:8768   */\n      tag_60\n      jump\t// in\n    tag_169:\n        /* \"#utility.yul\":8778:8862   */\n      tag_170\n        /* \"#utility.yul\":8858:8860   */\n      0x40\n        /* \"#utility.yul\":8847:8856   */\n      dup4\n        /* \"#utility.yul\":8843:8861   */\n      add\n        /* \"#utility.yul\":8834:8840   */\n      dup5\n        /* \"#utility.yul\":8778:8862   */\n      tag_68\n      jump\t// in\n    tag_170:\n        /* \"#utility.yul\":8403:8869   */\n      swap5\n      swap4\n      pop\n      pop\n      pop\n      pop\n      jump\t// out\n        /* \"#utility.yul\":8875:8973   */\n    tag_69:\n        /* \"#utility.yul\":8926:8932   */\n      0x00\n        /* \"#utility.yul\":8960:8965   */\n      dup2\n        /* \"#utility.yul\":8954:8966   */\n      mload\n        /* \"#utility.yul\":8944:8966   */\n      swap1\n      pop\n        /* \"#utility.yul\":8875:8973   */\n      swap2\n      swap1\n      pop\n      jump\t// out\n        /* \"#utility.yul\":8979:9147   */\n    tag_70:\n        /* \"#utility.yul\":9062:9073   */\n      0x00\n        /* \"#utility.yul\":9096:9102   */\n      dup3\n        /* \"#utility.yul\":9091:9094   */\n      dup3\n        /* \"#utility.yul\":9084:9103   */\n      mstore\n        /* \"#utility.yul\":9136:9140   */\n      0x20\n        /* \"#utility.yul\":9131:9134   */\n      dup3\n        /* \"#utility.yul\":9127:9141   */\n      add\n        /* \"#utility.yul\":9112:9141   */\n      swap1\n      pop\n        /* \"#utility.yul\":8979:9147   */\n      swap3\n      swap2\n      pop\n      pop\n      jump\t// out\n        /* \"#utility.yul\":9153:9399   */\n    tag_71:\n        /* \"#utility.yul\":9234:9235   */\n      0x00\n        /* \"#utility.yul\":9244:9357   */\n    tag_174:\n        /* \"#utility.yul\":9258:9264   */\n      dup4\n        /* \"#utility.yul\":9255:9256   */\n      dup2\n        /* \"#utility.yul\":9252:9265   */\n      lt\n        /* \"#utility.yul\":9244:9357   */\n      iszero\n      tag_176\n      jumpi\n        /* \"#utility.yul\":9343:9344   */\n      dup1\n        /* \"#utility.yul\":9338:9341   */\n      dup3\n        /* \"#utility.yul\":9334:9345   */\n      add\n        /* \"#utility.yul\":9328:9346   */\n      mload\n        /* \"#utility.yul\":9324:9325   */\n      dup2\n        /* \"#utility.yul\":9319:9322   */\n      dup5\n        /* \"#utility.yul\":9315:9326   */\n      add\n        /* \"#utility.yul\":9308:9347   */\n      mstore\n        /* \"#utility.yul\":9280:9282   */\n      0x20\n        /* \"#utility.yul\":9277:9278   */\n      dup2\n        /* \"#utility.yul\":9273:9283   */\n      add\n        /* \"#utility.yul\":9268:9283   */\n      swap1\n      pop\n        /* \"#utility.yul\":9244:9357   */\n      jump(tag_174)\n    tag_176:\n        /* \"#utility.yul\":9391:9392   */\n      0x00\n        /* \"#utility.yul\":9382:9388   */\n      dup5\n        /* \"#utility.yul\":9377:9380   */\n      dup5\n        /* \"#utility.yul\":9373:9389   */\n      add\n        /* \"#utility.yul\":9366:9393   */\n      mstore\n        /* \"#utility.yul\":9215:9399   */\n      pop\n        /* \"#utility.yul\":9153:9399   */\n      pop\n      pop\n      pop\n      jump\t// out\n        /* \"#utility.yul\":9405:9778   */\n    tag_72:\n        /* \"#utility.yul\":9491:9494   */\n      0x00\n        /* \"#utility.yul\":9519:9557   */\n      tag_178\n        /* \"#utility.yul\":9551:9556   */\n      dup3\n        /* \"#utility.yul\":9519:9557   */\n      tag_69\n      jump\t// in\n    tag_178:\n        /* \"#utility.yul\":9573:9643   */\n      tag_179\n        /* \"#utility.yul\":9636:9642   */\n      dup2\n        /* \"#utility.yul\":9631:9634   */\n      dup6\n        /* \"#utility.yul\":9573:9643   */\n      tag_70\n      jump\t// in\n    tag_179:\n        /* \"#utility.yul\":9566:9643   */\n      swap4\n      pop\n        /* \"#utility.yul\":9652:9717   */\n      tag_180\n        /* \"#utility.yul\":9710:9716   */\n      dup2\n        /* \"#utility.yul\":9705:9708   */\n      dup6\n        /* \"#utility.yul\":9698:9702   */\n      0x20\n        /* \"#utility.yul\":9691:9696   */\n      dup7\n        /* \"#utility.yul\":9687:9703   */\n      add\n        /* \"#utility.yul\":9652:9717   */\n      tag_71\n      jump\t// in\n    tag_180:\n        /* \"#utility.yul\":9742:9771   */\n      tag_181\n        /* \"#utility.yul\":9764:9770   */\n      dup2\n        /* \"#utility.yul\":9742:9771   */\n      tag_56\n      jump\t// in\n    tag_181:\n        /* \"#utility.yul\":9737:9740   */\n      dup5\n        /* \"#utility.yul\":9733:9772   */\n      add\n        /* \"#utility.yul\":9726:9772   */\n      swap2\n      pop\n        /* \"#utility.yul\":9495:9778   */\n      pop\n        /* \"#utility.yul\":9405:9778   */\n      swap3\n      swap2\n      pop\n      pop\n      jump\t// out\n        /* \"#utility.yul\":9784:11090   */\n    tag_29:\n        /* \"#utility.yul\":10153:10157   */\n      0x00\n        /* \"#utility.yul\":10191:10194   */\n      0xe0\n        /* \"#utility.yul\":10180:10189   */\n      dup3\n        /* \"#utility.yul\":10176:10195   */\n      add\n        /* \"#utility.yul\":10168:10195   */\n      swap1\n      pop\n        /* \"#utility.yul\":10205:10276   */\n      tag_183\n        /* \"#utility.yul\":10273:10274   */\n      0x00\n        /* \"#utility.yul\":10262:10271   */\n      dup4\n        /* \"#utility.yul\":10258:10275   */\n      add\n        /* \"#utility.yul\":10249:10255   */\n      dup14\n        /* \"#utility.yul\":10205:10276   */\n      tag_59\n      jump\t// in\n    tag_183:\n        /* \"#utility.yul\":10323:10332   */\n      dup2\n        /* \"#utility.yul\":10317:10321   */\n      dup2\n        /* \"#utility.yul\":10313:10333   */\n      sub\n        /* \"#utility.yul\":10308:10310   */\n      0x20\n        /* \"#utility.yul\":10297:10306   */\n      dup4\n        /* \"#utility.yul\":10293:10311   */\n      add\n        /* \"#utility.yul\":10286:10334   */\n      mstore\n        /* \"#utility.yul\":10351:10439   */\n      tag_184\n        /* \"#utility.yul\":10434:10438   */\n      dup2\n        /* \"#utility.yul\":10425:10431   */\n      dup12\n        /* \"#utility.yul\":10417:10423   */\n      dup14\n        /* \"#utility.yul\":10351:10439   */\n      tag_57\n      jump\t// in\n    tag_184:\n        /* \"#utility.yul\":10343:10439   */\n      swap1\n      pop\n        /* \"#utility.yul\":10486:10495   */\n      dup2\n        /* \"#utility.yul\":10480:10484   */\n      dup2\n        /* \"#utility.yul\":10476:10496   */\n      sub\n        /* \"#utility.yul\":10471:10473   */\n      0x40\n        /* \"#utility.yul\":10460:10469   */\n      dup4\n        /* \"#utility.yul\":10456:10474   */\n      add\n        /* \"#utility.yul\":10449:10497   */\n      mstore\n        /* \"#utility.yul\":10514:10602   */\n      tag_185\n        /* \"#utility.yul\":10597:10601   */\n      dup2\n        /* \"#utility.yul\":10588:10594   */\n      dup10\n        /* \"#utility.yul\":10580:10586   */\n      dup12\n        /* \"#utility.yul\":10514:10602   */\n      tag_57\n      jump\t// in\n    tag_185:\n        /* \"#utility.yul\":10506:10602   */\n      swap1\n      pop\n        /* \"#utility.yul\":10649:10658   */\n      dup2\n        /* \"#utility.yul\":10643:10647   */\n      dup2\n        /* \"#utility.yul\":10639:10659   */\n      sub\n        /* \"#utility.yul\":10634:10636   */\n      0x60\n        /* \"#utility.yul\":10623:10632   */\n      dup4\n        /* \"#utility.yul\":10619:10637   */\n      add\n        /* \"#utility.yul\":10612:10660   */\n      mstore\n        /* \"#utility.yul\":10677:10753   */\n      tag_186\n        /* \"#utility.yul\":10748:10752   */\n      dup2\n        /* \"#utility.yul\":10739:10745   */\n      dup9\n        /* \"#utility.yul\":10677:10753   */\n      tag_72\n      jump\t// in\n    tag_186:\n        /* \"#utility.yul\":10669:10753   */\n      swap1\n      pop\n        /* \"#utility.yul\":10801:10810   */\n      dup2\n        /* \"#utility.yul\":10795:10799   */\n      dup2\n        /* \"#utility.yul\":10791:10811   */\n      sub\n        /* \"#utility.yul\":10785:10788   */\n      0x80\n        /* \"#utility.yul\":10774:10783   */\n      dup4\n        /* \"#utility.yul\":10770:10789   */\n      add\n        /* \"#utility.yul\":10763:10812   */\n      mstore\n        /* \"#utility.yul\":10829:10917   */\n      tag_187\n        /* \"#utility.yul\":10912:10916   */\n      dup2\n        /* \"#utility.yul\":10903:10909   */\n      dup7\n        /* \"#utility.yul\":10895:10901   */\n      dup9\n        /* \"#utility.yul\":10829:10917   */\n      tag_57\n      jump\t// in\n    tag_187:\n        /* \"#utility.yul\":10821:10917   */\n      swap1\n      pop\n        /* \"#utility.yul\":10927:11000   */\n      tag_188\n        /* \"#utility.yul\":10995:10998   */\n      0xa0\n        /* \"#utility.yul\":10984:10993   */\n      dup4\n        /* \"#utility.yul\":10980:10999   */\n      add\n        /* \"#utility.yul\":10971:10977   */\n      dup6\n        /* \"#utility.yul\":10927:11000   */\n      tag_60\n      jump\t// in\n    tag_188:\n        /* \"#utility.yul\":11010:11083   */\n      tag_189\n        /* \"#utility.yul\":11078:11081   */\n      0xc0\n        /* \"#utility.yul\":11067:11076   */\n      dup4\n        /* \"#utility.yul\":11063:11082   */\n      add\n        /* \"#utility.yul\":11054:11060   */\n      dup5\n        /* \"#utility.yul\":11010:11083   */\n      tag_59\n      jump\t// in\n    tag_189:\n        /* \"#utility.yul\":9784:11090   */\n      swap12\n      swap11\n      pop\n      pop\n      pop\n      pop\n      pop\n      pop\n      pop\n      pop\n      pop\n      pop\n      pop\n      jump\t// out\n        /* \"#utility.yul\":11096:12180   */\n    tag_34:\n        /* \"#utility.yul\":11409:11413   */\n      0x00\n        /* \"#utility.yul\":11447:11450   */\n      0xa0\n        /* \"#utility.yul\":11436:11445   */\n      dup3\n        /* \"#utility.yul\":11432:11451   */\n      add\n        /* \"#utility.yul\":11424:11451   */\n      swap1\n      pop\n        /* \"#utility.yul\":11497:11506   */\n      dup2\n        /* \"#utility.yul\":11491:11495   */\n      dup2\n        /* \"#utility.yul\":11487:11507   */\n      sub\n        /* \"#utility.yul\":11483:11484   */\n      0x00\n        /* \"#utility.yul\":11472:11481   */\n      dup4\n        /* \"#utility.yul\":11468:11485   */\n      add\n        /* \"#utility.yul\":11461:11508   */\n      mstore\n        /* \"#utility.yul\":11525:11613   */\n      tag_191\n        /* \"#utility.yul\":11608:11612   */\n      dup2\n        /* \"#utility.yul\":11599:11605   */\n      dup11\n        /* \"#utility.yul\":11591:11597   */\n      dup13\n        /* \"#utility.yul\":11525:11613   */\n      tag_57\n      jump\t// in\n    tag_191:\n        /* \"#utility.yul\":11517:11613   */\n      swap1\n      pop\n        /* \"#utility.yul\":11660:11669   */\n      dup2\n        /* \"#utility.yul\":11654:11658   */\n      dup2\n        /* \"#utility.yul\":11650:11670   */\n      sub\n        /* \"#utility.yul\":11645:11647   */\n      0x20\n        /* \"#utility.yul\":11634:11643   */\n      dup4\n        /* \"#utility.yul\":11630:11648   */\n      add\n        /* \"#utility.yul\":11623:11671   */\n      mstore\n        /* \"#utility.yul\":11688:11776   */\n      tag_192\n        /* \"#utility.yul\":11771:11775   */\n      dup2\n        /* \"#utility.yul\":11762:11768   */\n      dup9\n        /* \"#utility.yul\":11754:11760   */\n      dup11\n        /* \"#utility.yul\":11688:11776   */\n      tag_57\n      jump\t// in\n    tag_192:\n        /* \"#utility.yul\":11680:11776   */\n      swap1\n      pop\n        /* \"#utility.yul\":11823:11832   */\n      dup2\n        /* \"#utility.yul\":11817:11821   */\n      dup2\n        /* \"#utility.yul\":11813:11833   */\n      sub\n        /* \"#utility.yul\":11808:11810   */\n      0x40\n        /* \"#utility.yul\":11797:11806   */\n      dup4\n        /* \"#utility.yul\":11793:11811   */\n      add\n        /* \"#utility.yul\":11786:11834   */\n      mstore\n        /* \"#utility.yul\":11851:11927   */\n      tag_193\n        /* \"#utility.yul\":11922:11926   */\n      dup2\n        /* \"#utility.yul\":11913:11919   */\n      dup8\n        /* \"#utility.yul\":11851:11927   */\n      tag_72\n      jump\t// in\n    tag_193:\n        /* \"#utility.yul\":11843:11927   */\n      swap1\n      pop\n        /* \"#utility.yul\":11974:11983   */\n      dup2\n        /* \"#utility.yul\":11968:11972   */\n      dup2\n        /* \"#utility.yul\":11964:11984   */\n      sub\n        /* \"#utility.yul\":11959:11961   */\n      0x60\n        /* \"#utility.yul\":11948:11957   */\n      dup4\n        /* \"#utility.yul\":11944:11962   */\n      add\n        /* \"#utility.yul\":11937:11985   */\n      mstore\n        /* \"#utility.yul\":12002:12090   */\n      tag_194\n        /* \"#utility.yul\":12085:12089   */\n      dup2\n        /* \"#utility.yul\":12076:12082   */\n      dup6\n        /* \"#utility.yul\":12068:12074   */\n      dup8\n        /* \"#utility.yul\":12002:12090   */\n      tag_57\n      jump\t// in\n    tag_194:\n        /* \"#utility.yul\":11994:12090   */\n      swap1\n      pop\n        /* \"#utility.yul\":12100:12173   */\n      tag_195\n        /* \"#utility.yul\":12168:12171   */\n      0x80\n        /* \"#utility.yul\":12157:12166   */\n      dup4\n        /* \"#utility.yul\":12153:12172   */\n      add\n        /* \"#utility.yul\":12144:12150   */\n      dup5\n        /* \"#utility.yul\":12100:12173   */\n      tag_60\n      jump\t// in\n    tag_195:\n        /* \"#utility.yul\":11096:12180   */\n      swap10\n      swap9\n      pop\n      pop\n      pop\n      pop\n      pop\n      pop\n      pop\n      pop\n      pop\n      jump\t// out\n\n    auxdata: 0xa2646970667358221220f8362244eae8e5bf77c8d10ff8e9add865b953136a84dd7cf231e19895f9dcb364736f6c63430008130033\n}\n",
				"bytecode": {
					"linkReferences": {},
					"object": "60c060405234801561001057600080fd5b50604051610b27380380610b2783398181016040528101906100329190610104565b8173ffffffffffffffffffffffffffffffffffffffff1660a08173ffffffffffffffffffffffffffffffffffffffff16815250508073ffffffffffffffffffffffffffffffffffffffff1660808173ffffffffffffffffffffffffffffffffffffffff16815250505050610144565b600080fd5b600073ffffffffffffffffffffffffffffffffffffffff82169050919050565b60006100d1826100a6565b9050919050565b6100e1816100c6565b81146100ec57600080fd5b50565b6000815190506100fe816100d8565b92915050565b6000806040838503121561011b5761011a6100a1565b5b6000610129858286016100ef565b925050602061013a858286016100ef565b9150509250929050565b60805160a0516109b16101766000396000818160430152818161017e01526102d10152600061023201526109b16000f3fe60806040526004361061001e5760003560e01c8063a507a53d14610023575b600080fd5b61003d6004803603810190610038919061049e565b61003f565b005b60007f000000000000000000000000000000000000000000000000000000000000000073ffffffffffffffffffffffffffffffffffffffff1663935b13f685856040518363ffffffff1660e01b815260040161009c9291906105ff565b602060405180830381865afa1580156100b9573d6000803e3d6000fd5b505050506040513d601f19601f820116820180604052508101906100dd9190610638565b90508073ffffffffffffffffffffffffffffffffffffffff166323b872dd3330856040518463ffffffff1660e01b815260040161011c93929190610683565b6020604051808303816000875af115801561013b573d6000803e3d6000fd5b505050506040513d601f19601f8201168201806040525081019061015f91906106f2565b508073ffffffffffffffffffffffffffffffffffffffff1663095ea7b37f0000000000000000000000000000000000000000000000000000000000000000846040518363ffffffff1660e01b81526004016101bb92919061071f565b6020604051808303816000875af11580156101da573d6000803e3d6000fd5b505050506040513d601f19601f820116820180604052508101906101fe91906106f2565b506000878787604051602001610216939291906107bf565b604051602081830303815290604052905060003411156102cf577f000000000000000000000000000000000000000000000000000000000000000073ffffffffffffffffffffffffffffffffffffffff1663c62c200234308f8f8f8f888d8d8d336040518c63ffffffff1660e01b815260040161029c9a99989796959493929190610875565b6000604051808303818588803b1580156102b557600080fd5b505af11580156102c9573d6000803e3d6000fd5b50505050505b7f000000000000000000000000000000000000000000000000000000000000000073ffffffffffffffffffffffffffffffffffffffff1663b54170848d8d8d8d868b8b8b6040518963ffffffff1660e01b8152600401610336989796959493929190610906565b600060405180830381600087803b15801561035057600080fd5b505af1158015610364573d6000803e3d6000fd5b50505050505050505050505050505050565b600080fd5b600080fd5b600080fd5b600080fd5b600080fd5b60008083601f8401126103a5576103a4610380565b5b8235905067ffffffffffffffff8111156103c2576103c1610385565b5b6020830191508360018202830111156103de576103dd61038a565b5b9250929050565b600073ffffffffffffffffffffffffffffffffffffffff82169050919050565b6000610410826103e5565b9050919050565b61042081610405565b811461042b57600080fd5b50565b60008135905061043d81610417565b92915050565b6000819050919050565b61045681610443565b811461046157600080fd5b50565b6000813590506104738161044d565b92915050565b6004811061048657600080fd5b50565b60008135905061049881610479565b92915050565b60008060008060008060008060008060e08b8d0312156104c1576104c0610376565b5b60008b013567ffffffffffffffff8111156104df576104de61037b565b5b6104eb8d828e0161038f565b9a509a505060208b013567ffffffffffffffff81111561050e5761050d61037b565b5b61051a8d828e0161038f565b9850985050604061052d8d828e0161042e565b965050606061053e8d828e01610464565b955050608061054f8d828e01610489565b94505060a08b013567ffffffffffffffff8111156105705761056f61037b565b5b61057c8d828e0161038f565b935093505060c061058f8d828e01610464565b9150509295989b9194979a5092959850565b600082825260208201905092915050565b82818337600083830152505050565b6000601f19601f8301169050919050565b60006105de83856105a1565b93506105eb8385846105b2565b6105f4836105c1565b840190509392505050565b6000602082019050818103600083015261061a8184866105d2565b90509392505050565b60008151905061063281610417565b92915050565b60006020828403121561064e5761064d610376565b5b600061065c84828501610623565b91505092915050565b61066e81610405565b82525050565b61067d81610443565b82525050565b60006060820190506106986000830186610665565b6106a56020830185610665565b6106b26040830184610674565b949350505050565b60008115159050919050565b6106cf816106ba565b81146106da57600080fd5b50565b6000815190506106ec816106c6565b92915050565b60006020828403121561070857610707610376565b5b6000610716848285016106dd565b91505092915050565b60006040820190506107346000830185610665565b6107416020830184610674565b9392505050565b7f4e487b7100000000000000000000000000000000000000000000000000000000600052602160045260246000fd5b6004811061078857610787610748565b5b50565b600081905061079982610777565b919050565b60006107a98261078b565b9050919050565b6107b98161079e565b82525050565b60006060820190506107d46000830186610665565b6107e16020830185610674565b6107ee60408301846107b0565b949350505050565b600081519050919050565b600082825260208201905092915050565b60005b83811015610830578082015181840152602081019050610815565b60008484015250505050565b6000610847826107f6565b6108518185610801565b9350610861818560208601610812565b61086a816105c1565b840191505092915050565b600060e08201905061088a600083018d610665565b818103602083015261089d818b8d6105d2565b905081810360408301526108b281898b6105d2565b905081810360608301526108c6818861083c565b905081810360808301526108db8186886105d2565b90506108ea60a0830185610674565b6108f760c0830184610665565b9b9a5050505050505050505050565b600060a0820190508181036000830152610921818a8c6105d2565b9050818103602083015261093681888a6105d2565b9050818103604083015261094a818761083c565b9050818103606083015261095f8185876105d2565b905061096e6080830184610674565b999850505050505050505056fea2646970667358221220f8362244eae8e5bf77c8d10ff8e9add865b953136a84dd7cf231e19895f9dcb364736f6c63430008130033",
					"opcodes": "PUSH1 0xC0 PUSH1 0x40 MSTORE CALLVALUE DUP1 ISZERO PUSH2 0x10 JUMPI PUSH1 0x0 DUP1 REVERT JUMPDEST POP PUSH1 0x40 MLOAD PUSH2 0xB27 CODESIZE SUB DUP1 PUSH2 0xB27 DUP4 CODECOPY DUP2 DUP2 ADD PUSH1 0x40 MSTORE DUP2 ADD SWAP1 PUSH2 0x32 SWAP2 SWAP1 PUSH2 0x104 JUMP JUMPDEST DUP2 PUSH20 0xFFFFFFFFFFFFFFFFFFFFFFFFFFFFFFFFFFFFFFFF AND PUSH1 0xA0 DUP2 PUSH20 0xFFFFFFFFFFFFFFFFFFFFFFFFFFFFFFFFFFFFFFFF AND DUP2 MSTORE POP POP DUP1 PUSH20 0xFFFFFFFFFFFFFFFFFFFFFFFFFFFFFFFFFFFFFFFF AND PUSH1 0x80 DUP2 PUSH20 0xFFFFFFFFFFFFFFFFFFFFFFFFFFFFFFFFFFFFFFFF AND DUP2 MSTORE POP POP POP POP PUSH2 0x144 JUMP JUMPDEST PUSH1 0x0 DUP1 REVERT JUMPDEST PUSH1 0x0 PUSH20 0xFFFFFFFFFFFFFFFFFFFFFFFFFFFFFFFFFFFFFFFF DUP3 AND SWAP1 POP SWAP2 SWAP1 POP JUMP JUMPDEST PUSH1 0x0 PUSH2 0xD1 DUP3 PUSH2 0xA6 JUMP JUMPDEST SWAP1 POP SWAP2 SWAP1 POP JUMP JUMPDEST PUSH2 0xE1 DUP2 PUSH2 0xC6 JUMP JUMPDEST DUP2 EQ PUSH2 0xEC JUMPI PUSH1 0x0 DUP1 REVERT JUMPDEST POP JUMP JUMPDEST PUSH1 0x0 DUP2 MLOAD SWAP1 POP PUSH2 0xFE DUP2 PUSH2 0xD8 JUMP JUMPDEST SWAP3 SWAP2 POP POP JUMP JUMPDEST PUSH1 0x0 DUP1 PUSH1 0x40 DUP4 DUP6 SUB SLT ISZERO PUSH2 0x11B JUMPI PUSH2 0x11A PUSH2 0xA1 JUMP JUMPDEST JUMPDEST PUSH1 0x0 PUSH2 0x129 DUP6 DUP3 DUP7 ADD PUSH2 0xEF JUMP JUMPDEST SWAP3 POP POP PUSH1 0x20 PUSH2 0x13A DUP6 DUP3 DUP7 ADD PUSH2 0xEF JUMP JUMPDEST SWAP2 POP POP SWAP3 POP SWAP3 SWAP1 POP JUMP JUMPDEST PUSH1 0x80 MLOAD PUSH1 0xA0 MLOAD PUSH2 0x9B1 PUSH2 0x176 PUSH1 0x0 CODECOPY PUSH1 0x0 DUP2 DUP2 PUSH1 0x43 ADD MSTORE DUP2 DUP2 PUSH2 0x17E ADD MSTORE PUSH2 0x2D1 ADD MSTORE PUSH1 0x0 PUSH2 0x232 ADD MSTORE PUSH2 0x9B1 PUSH1 0x0 RETURN INVALID PUSH1 0x80 PUSH1 0x40 MSTORE PUSH1 0x4 CALLDATASIZE LT PUSH2 0x1E JUMPI PUSH1 0x0 CALLDATALOAD PUSH1 0xE0 SHR DUP1 PUSH4 0xA507A53D EQ PUSH2 0x23 JUMPI JUMPDEST PUSH1 0x0 DUP1 REVERT JUMPDEST PUSH2 0x3D PUSH1 0x4 DUP1 CALLDATASIZE SUB DUP2 ADD SWAP1 PUSH2 0x38 SWAP2 SWAP1 PUSH2 0x49E JUMP JUMPDEST PUSH2 0x3F JUMP JUMPDEST STOP JUMPDEST PUSH1 0x0 PUSH32 0x0 PUSH20 0xFFFFFFFFFFFFFFFFFFFFFFFFFFFFFFFFFFFFFFFF AND PUSH4 0x935B13F6 DUP6 DUP6 PUSH1 0x40 MLOAD DUP4 PUSH4 0xFFFFFFFF AND PUSH1 0xE0 SHL DUP2 MSTORE PUSH1 0x4 ADD PUSH2 0x9C SWAP3 SWAP2 SWAP1 PUSH2 0x5FF JUMP JUMPDEST PUSH1 0x20 PUSH1 0x40 MLOAD DUP1 DUP4 SUB DUP2 DUP7 GAS STATICCALL ISZERO DUP1 ISZERO PUSH2 0xB9 JUMPI RETURNDATASIZE PUSH1 0x0 DUP1 RETURNDATACOPY RETURNDATASIZE PUSH1 0x0 REVERT JUMPDEST POP POP POP POP PUSH1 0x40 MLOAD RETURNDATASIZE PUSH1 0x1F NOT PUSH1 0x1F DUP3 ADD AND DUP3 ADD DUP1 PUSH1 0x40 MSTORE POP DUP2 ADD SWAP1 PUSH2 0xDD SWAP2 SWAP1 PUSH2 0x638 JUMP JUMPDEST SWAP1 POP DUP1 PUSH20 0xFFFFFFFFFFFFFFFFFFFFFFFFFFFFFFFFFFFFFFFF AND PUSH4 0x23B872DD CALLER ADDRESS DUP6 PUSH1 0x40 MLOAD DUP5 PUSH4 0xFFFFFFFF AND PUSH1 0xE0 SHL DUP2 MSTORE PUSH1 0x4 ADD PUSH2 0x11C SWAP4 SWAP3 SWAP2 SWAP1 PUSH2 0x683 JUMP JUMPDEST PUSH1 0x20 PUSH1 0x40 MLOAD DUP1 DUP4 SUB DUP2 PUSH1 0x0 DUP8 GAS CALL ISZERO DUP1 ISZERO PUSH2 0x13B JUMPI RETURNDATASIZE PUSH1 0x0 DUP1 RETURNDATACOPY RETURNDATASIZE PUSH1 0x0 REVERT JUMPDEST POP POP POP POP PUSH1 0x40 MLOAD RETURNDATASIZE PUSH1 0x1F NOT PUSH1 0x1F DUP3 ADD AND DUP3 ADD DUP1 PUSH1 0x40 MSTORE POP DUP2 ADD SWAP1 PUSH2 0x15F SWAP2 SWAP1 PUSH2 0x6F2 JUMP JUMPDEST POP DUP1 PUSH20 0xFFFFFFFFFFFFFFFFFFFFFFFFFFFFFFFFFFFFFFFF AND PUSH4 0x95EA7B3 PUSH32 0x0 DUP5 PUSH1 0x40 MLOAD DUP4 PUSH4 0xFFFFFFFF AND PUSH1 0xE0 SHL DUP2 MSTORE PUSH1 0x4 ADD PUSH2 0x1BB SWAP3 SWAP2 SWAP1 PUSH2 0x71F JUMP JUMPDEST PUSH1 0x20 PUSH1 0x40 MLOAD DUP1 DUP4 SUB DUP2 PUSH1 0x0 DUP8 GAS CALL ISZERO DUP1 ISZERO PUSH2 0x1DA JUMPI RETURNDATASIZE PUSH1 0x0 DUP1 RETURNDATACOPY RETURNDATASIZE PUSH1 0x0 REVERT JUMPDEST POP POP POP POP PUSH1 0x40 MLOAD RETURNDATASIZE PUSH1 0x1F NOT PUSH1 0x1F DUP3 ADD AND DUP3 ADD DUP1 PUSH1 0x40 MSTORE POP DUP2 ADD SWAP1 PUSH2 0x1FE SWAP2 SWAP1 PUSH2 0x6F2 JUMP JUMPDEST POP PUSH1 0x0 DUP8 DUP8 DUP8 PUSH1 0x40 MLOAD PUSH1 0x20 ADD PUSH2 0x216 SWAP4 SWAP3 SWAP2 SWAP1 PUSH2 0x7BF JUMP JUMPDEST PUSH1 0x40 MLOAD PUSH1 0x20 DUP2 DUP4 SUB SUB DUP2 MSTORE SWAP1 PUSH1 0x40 MSTORE SWAP1 POP PUSH1 0x0 CALLVALUE GT ISZERO PUSH2 0x2CF JUMPI PUSH32 0x0 PUSH20 0xFFFFFFFFFFFFFFFFFFFFFFFFFFFFFFFFFFFFFFFF AND PUSH4 0xC62C2002 CALLVALUE ADDRESS DUP16 DUP16 DUP16 DUP16 DUP9 DUP14 DUP14 DUP14 CALLER PUSH1 0x40 MLOAD DUP13 PUSH4 0xFFFFFFFF AND PUSH1 0xE0 SHL DUP2 MSTORE PUSH1 0x4 ADD PUSH2 0x29C SWAP11 SWAP10 SWAP9 SWAP8 SWAP7 SWAP6 SWAP5 SWAP4 SWAP3 SWAP2 SWAP1 PUSH2 0x875 JUMP JUMPDEST PUSH1 0x0 PUSH1 0x40 MLOAD DUP1 DUP4 SUB DUP2 DUP6 DUP9 DUP1 EXTCODESIZE ISZERO DUP1 ISZERO PUSH2 0x2B5 JUMPI PUSH1 0x0 DUP1 REVERT JUMPDEST POP GAS CALL ISZERO DUP1 ISZERO PUSH2 0x2C9 JUMPI RETURNDATASIZE PUSH1 0x0 DUP1 RETURNDATACOPY RETURNDATASIZE PUSH1 0x0 REVERT JUMPDEST POP POP POP POP POP JUMPDEST PUSH32 0x0 PUSH20 0xFFFFFFFFFFFFFFFFFFFFFFFFFFFFFFFFFFFFFFFF AND PUSH4 0xB5417084 DUP14 DUP14 DUP14 DUP14 DUP7 DUP12 DUP12 DUP12 PUSH1 0x40 MLOAD DUP10 PUSH4 0xFFFFFFFF AND PUSH1 0xE0 SHL DUP2 MSTORE PUSH1 0x4 ADD PUSH2 0x336 SWAP9 SWAP8 SWAP7 SWAP6 SWAP5 SWAP4 SWAP3 SWAP2 SWAP1 PUSH2 0x906 JUMP JUMPDEST PUSH1 0x0 PUSH1 0x40 MLOAD DUP1 DUP4 SUB DUP2 PUSH1 0x0 DUP8 DUP1 EXTCODESIZE ISZERO DUP1 ISZERO PUSH2 0x350 JUMPI PUSH1 0x0 DUP1 REVERT JUMPDEST POP GAS CALL ISZERO DUP1 ISZERO PUSH2 0x364 JUMPI RETURNDATASIZE PUSH1 0x0 DUP1 RETURNDATACOPY RETURNDATASIZE PUSH1 0x0 REVERT JUMPDEST POP POP POP POP POP POP POP POP POP POP POP POP POP POP POP POP JUMP JUMPDEST PUSH1 0x0 DUP1 REVERT JUMPDEST PUSH1 0x0 DUP1 REVERT JUMPDEST PUSH1 0x0 DUP1 REVERT JUMPDEST PUSH1 0x0 DUP1 REVERT JUMPDEST PUSH1 0x0 DUP1 REVERT JUMPDEST PUSH1 0x0 DUP1 DUP4 PUSH1 0x1F DUP5 ADD SLT PUSH2 0x3A5 JUMPI PUSH2 0x3A4 PUSH2 0x380 JUMP JUMPDEST JUMPDEST DUP3 CALLDATALOAD SWAP1 POP PUSH8 0xFFFFFFFFFFFFFFFF DUP2 GT ISZERO PUSH2 0x3C2 JUMPI PUSH2 0x3C1 PUSH2 0x385 JUMP JUMPDEST JUMPDEST PUSH1 0x20 DUP4 ADD SWAP2 POP DUP4 PUSH1 0x1 DUP3 MUL DUP4 ADD GT ISZERO PUSH2 0x3DE JUMPI PUSH2 0x3DD PUSH2 0x38A JUMP JUMPDEST JUMPDEST SWAP3 POP SWAP3 SWAP1 POP JUMP JUMPDEST PUSH1 0x0 PUSH20 0xFFFFFFFFFFFFFFFFFFFFFFFFFFFFFFFFFFFFFFFF DUP3 AND SWAP1 POP SWAP2 SWAP1 POP JUMP JUMPDEST PUSH1 0x0 PUSH2 0x410 DUP3 PUSH2 0x3E5 JUMP JUMPDEST SWAP1 POP SWAP2 SWAP1 POP JUMP JUMPDEST PUSH2 0x420 DUP2 PUSH2 0x405 JUMP JUMPDEST DUP2 EQ PUSH2 0x42B JUMPI PUSH1 0x0 DUP1 REVERT JUMPDEST POP JUMP JUMPDEST PUSH1 0x0 DUP2 CALLDATALOAD SWAP1 POP PUSH2 0x43D DUP2 PUSH2 0x417 JUMP JUMPDEST SWAP3 SWAP2 POP POP JUMP JUMPDEST PUSH1 0x0 DUP2 SWAP1 POP SWAP2 SWAP1 POP JUMP JUMPDEST PUSH2 0x456 DUP2 PUSH2 0x443 JUMP JUMPDEST DUP2 EQ PUSH2 0x461 JUMPI PUSH1 0x0 DUP1 REVERT JUMPDEST POP JUMP JUMPDEST PUSH1 0x0 DUP2 CALLDATALOAD SWAP1 POP PUSH2 0x473 DUP2 PUSH2 0x44D JUMP JUMPDEST SWAP3 SWAP2 POP POP JUMP JUMPDEST PUSH1 0x4 DUP2 LT PUSH2 0x486 JUMPI PUSH1 0x0 DUP1 REVERT JUMPDEST POP JUMP JUMPDEST PUSH1 0x0 DUP2 CALLDATALOAD SWAP1 POP PUSH2 0x498 DUP2 PUSH2 0x479 JUMP JUMPDEST SWAP3 SWAP2 POP POP JUMP JUMPDEST PUSH1 0x0 DUP1 PUSH1 0x0 DUP1 PUSH1 0x0 DUP1 PUSH1 0x0 DUP1 PUSH1 0x0 DUP1 PUSH1 0xE0 DUP12 DUP14 SUB SLT ISZERO PUSH2 0x4C1 JUMPI PUSH2 0x4C0 PUSH2 0x376 JUMP JUMPDEST JUMPDEST PUSH1 0x0 DUP12 ADD CALLDATALOAD PUSH8 0xFFFFFFFFFFFFFFFF DUP2 GT ISZERO PUSH2 0x4DF JUMPI PUSH2 0x4DE PUSH2 0x37B JUMP JUMPDEST JUMPDEST PUSH2 0x4EB DUP14 DUP3 DUP15 ADD PUSH2 0x38F JUMP JUMPDEST SWAP11 POP SWAP11 POP POP PUSH1 0x20 DUP12 ADD CALLDATALOAD PUSH8 0xFFFFFFFFFFFFFFFF DUP2 GT ISZERO PUSH2 0x50E JUMPI PUSH2 0x50D PUSH2 0x37B JUMP JUMPDEST JUMPDEST PUSH2 0x51A DUP14 DUP3 DUP15 ADD PUSH2 0x38F JUMP JUMPDEST SWAP9 POP SWAP9 POP POP PUSH1 0x40 PUSH2 0x52D DUP14 DUP3 DUP15 ADD PUSH2 0x42E JUMP JUMPDEST SWAP7 POP POP PUSH1 0x60 PUSH2 0x53E DUP14 DUP3 DUP15 ADD PUSH2 0x464 JUMP JUMPDEST SWAP6 POP POP PUSH1 0x80 PUSH2 0x54F DUP14 DUP3 DUP15 ADD PUSH2 0x489 JUMP JUMPDEST SWAP5 POP POP PUSH1 0xA0 DUP12 ADD CALLDATALOAD PUSH8 0xFFFFFFFFFFFFFFFF DUP2 GT ISZERO PUSH2 0x570 JUMPI PUSH2 0x56F PUSH2 0x37B JUMP JUMPDEST JUMPDEST PUSH2 0x57C DUP14 DUP3 DUP15 ADD PUSH2 0x38F JUMP JUMPDEST SWAP4 POP SWAP4 POP POP PUSH1 0xC0 PUSH2 0x58F DUP14 DUP3 DUP15 ADD PUSH2 0x464 JUMP JUMPDEST SWAP2 POP POP SWAP3 SWAP6 SWAP9 SWAP12 SWAP2 SWAP5 SWAP8 SWAP11 POP SWAP3 SWAP6 SWAP9 POP JUMP JUMPDEST PUSH1 0x0 DUP3 DUP3 MSTORE PUSH1 0x20 DUP3 ADD SWAP1 POP SWAP3 SWAP2 POP POP JUMP JUMPDEST DUP3 DUP2 DUP4 CALLDATACOPY PUSH1 0x0 DUP4 DUP4 ADD MSTORE POP POP POP JUMP JUMPDEST PUSH1 0x0 PUSH1 0x1F NOT PUSH1 0x1F DUP4 ADD AND SWAP1 POP SWAP2 SWAP1 POP JUMP JUMPDEST PUSH1 0x0 PUSH2 0x5DE DUP4 DUP6 PUSH2 0x5A1 JUMP JUMPDEST SWAP4 POP PUSH2 0x5EB DUP4 DUP6 DUP5 PUSH2 0x5B2 JUMP JUMPDEST PUSH2 0x5F4 DUP4 PUSH2 0x5C1 JUMP JUMPDEST DUP5 ADD SWAP1 POP SWAP4 SWAP3 POP POP POP JUMP JUMPDEST PUSH1 0x0 PUSH1 0x20 DUP3 ADD SWAP1 POP DUP2 DUP2 SUB PUSH1 0x0 DUP4 ADD MSTORE PUSH2 0x61A DUP2 DUP5 DUP7 PUSH2 0x5D2 JUMP JUMPDEST SWAP1 POP SWAP4 SWAP3 POP POP POP JUMP JUMPDEST PUSH1 0x0 DUP2 MLOAD SWAP1 POP PUSH2 0x632 DUP2 PUSH2 0x417 JUMP JUMPDEST SWAP3 SWAP2 POP POP JUMP JUMPDEST PUSH1 0x0 PUSH1 0x20 DUP3 DUP5 SUB SLT ISZERO PUSH2 0x64E JUMPI PUSH2 0x64D PUSH2 0x376 JUMP JUMPDEST JUMPDEST PUSH1 0x0 PUSH2 0x65C DUP5 DUP3 DUP6 ADD PUSH2 0x623 JUMP JUMPDEST SWAP2 POP POP SWAP3 SWAP2 POP POP JUMP JUMPDEST PUSH2 0x66E DUP2 PUSH2 0x405 JUMP JUMPDEST DUP3 MSTORE POP POP JUMP JUMPDEST PUSH2 0x67D DUP2 PUSH2 0x443 JUMP JUMPDEST DUP3 MSTORE POP POP JUMP JUMPDEST PUSH1 0x0 PUSH1 0x60 DUP3 ADD SWAP1 POP PUSH2 0x698 PUSH1 0x0 DUP4 ADD DUP7 PUSH2 0x665 JUMP JUMPDEST PUSH2 0x6A5 PUSH1 0x20 DUP4 ADD DUP6 PUSH2 0x665 JUMP JUMPDEST PUSH2 0x6B2 PUSH1 0x40 DUP4 ADD DUP5 PUSH2 0x674 JUMP JUMPDEST SWAP5 SWAP4 POP POP POP POP JUMP JUMPDEST PUSH1 0x0 DUP2 ISZERO ISZERO SWAP1 POP SWAP2 SWAP1 POP JUMP JUMPDEST PUSH2 0x6CF DUP2 PUSH2 0x6BA JUMP JUMPDEST DUP2 EQ PUSH2 0x6DA JUMPI PUSH1 0x0 DUP1 REVERT JUMPDEST POP JUMP JUMPDEST PUSH1 0x0 DUP2 MLOAD SWAP1 POP PUSH2 0x6EC DUP2 PUSH2 0x6C6 JUMP JUMPDEST SWAP3 SWAP2 POP POP JUMP JUMPDEST PUSH1 0x0 PUSH1 0x20 DUP3 DUP5 SUB SLT ISZERO PUSH2 0x708 JUMPI PUSH2 0x707 PUSH2 0x376 JUMP JUMPDEST JUMPDEST PUSH1 0x0 PUSH2 0x716 DUP5 DUP3 DUP6 ADD PUSH2 0x6DD JUMP JUMPDEST SWAP2 POP POP SWAP3 SWAP2 POP POP JUMP JUMPDEST PUSH1 0x0 PUSH1 0x40 DUP3 ADD SWAP1 POP PUSH2 0x734 PUSH1 0x0 DUP4 ADD DUP6 PUSH2 0x665 JUMP JUMPDEST PUSH2 0x741 PUSH1 0x20 DUP4 ADD DUP5 PUSH2 0x674 JUMP JUMPDEST SWAP4 SWAP3 POP POP POP JUMP JUMPDEST PUSH32 0x4E487B7100000000000000000000000000000000000000000000000000000000 PUSH1 0x0 MSTORE PUSH1 0x21 PUSH1 0x4 MSTORE PUSH1 0x24 PUSH1 0x0 REVERT JUMPDEST PUSH1 0x4 DUP2 LT PUSH2 0x788 JUMPI PUSH2 0x787 PUSH2 0x748 JUMP JUMPDEST JUMPDEST POP JUMP JUMPDEST PUSH1 0x0 DUP2 SWAP1 POP PUSH2 0x799 DUP3 PUSH2 0x777 JUMP JUMPDEST SWAP2 SWAP1 POP JUMP JUMPDEST PUSH1 0x0 PUSH2 0x7A9 DUP3 PUSH2 0x78B JUMP JUMPDEST SWAP1 POP SWAP2 SWAP1 POP JUMP JUMPDEST PUSH2 0x7B9 DUP2 PUSH2 0x79E JUMP JUMPDEST DUP3 MSTORE POP POP JUMP JUMPDEST PUSH1 0x0 PUSH1 0x60 DUP3 ADD SWAP1 POP PUSH2 0x7D4 PUSH1 0x0 DUP4 ADD DUP7 PUSH2 0x665 JUMP JUMPDEST PUSH2 0x7E1 PUSH1 0x20 DUP4 ADD DUP6 PUSH2 0x674 JUMP JUMPDEST PUSH2 0x7EE PUSH1 0x40 DUP4 ADD DUP5 PUSH2 0x7B0 JUMP JUMPDEST SWAP5 SWAP4 POP POP POP POP JUMP JUMPDEST PUSH1 0x0 DUP2 MLOAD SWAP1 POP SWAP2 SWAP1 POP JUMP JUMPDEST PUSH1 0x0 DUP3 DUP3 MSTORE PUSH1 0x20 DUP3 ADD SWAP1 POP SWAP3 SWAP2 POP POP JUMP JUMPDEST PUSH1 0x0 JUMPDEST DUP4 DUP2 LT ISZERO PUSH2 0x830 JUMPI DUP1 DUP3 ADD MLOAD DUP2 DUP5 ADD MSTORE PUSH1 0x20 DUP2 ADD SWAP1 POP PUSH2 0x815 JUMP JUMPDEST PUSH1 0x0 DUP5 DUP5 ADD MSTORE POP POP POP POP JUMP JUMPDEST PUSH1 0x0 PUSH2 0x847 DUP3 PUSH2 0x7F6 JUMP JUMPDEST PUSH2 0x851 DUP2 DUP6 PUSH2 0x801 JUMP JUMPDEST SWAP4 POP PUSH2 0x861 DUP2 DUP6 PUSH1 0x20 DUP7 ADD PUSH2 0x812 JUMP JUMPDEST PUSH2 0x86A DUP2 PUSH2 0x5C1 JUMP JUMPDEST DUP5 ADD SWAP2 POP POP SWAP3 SWAP2 POP POP JUMP JUMPDEST PUSH1 0x0 PUSH1 0xE0 DUP3 ADD SWAP1 POP PUSH2 0x88A PUSH1 0x0 DUP4 ADD DUP14 PUSH2 0x665 JUMP JUMPDEST DUP2 DUP2 SUB PUSH1 0x20 DUP4 ADD MSTORE PUSH2 0x89D DUP2 DUP12 DUP14 PUSH2 0x5D2 JUMP JUMPDEST SWAP1 POP DUP2 DUP2 SUB PUSH1 0x40 DUP4 ADD MSTORE PUSH2 0x8B2 DUP2 DUP10 DUP12 PUSH2 0x5D2 JUMP JUMPDEST SWAP1 POP DUP2 DUP2 SUB PUSH1 0x60 DUP4 ADD MSTORE PUSH2 0x8C6 DUP2 DUP9 PUSH2 0x83C JUMP JUMPDEST SWAP1 POP DUP2 DUP2 SUB PUSH1 0x80 DUP4 ADD MSTORE PUSH2 0x8DB DUP2 DUP7 DUP9 PUSH2 0x5D2 JUMP JUMPDEST SWAP1 POP PUSH2 0x8EA PUSH1 0xA0 DUP4 ADD DUP6 PUSH2 0x674 JUMP JUMPDEST PUSH2 0x8F7 PUSH1 0xC0 DUP4 ADD DUP5 PUSH2 0x665 JUMP JUMPDEST SWAP12 SWAP11 POP POP POP POP POP POP POP POP POP POP POP JUMP JUMPDEST PUSH1 0x0 PUSH1 0xA0 DUP3 ADD SWAP1 POP DUP2 DUP2 SUB PUSH1 0x0 DUP4 ADD MSTORE PUSH2 0x921 DUP2 DUP11 DUP13 PUSH2 0x5D2 JUMP JUMPDEST SWAP1 POP DUP2 DUP2 SUB PUSH1 0x20 DUP4 ADD MSTORE PUSH2 0x936 DUP2 DUP9 DUP11 PUSH2 0x5D2 JUMP JUMPDEST SWAP1 POP DUP2 DUP2 SUB PUSH1 0x40 DUP4 ADD MSTORE PUSH2 0x94A DUP2 DUP8 PUSH2 0x83C JUMP JUMPDEST SWAP1 POP DUP2 DUP2 SUB PUSH1 0x60 DUP4 ADD MSTORE PUSH2 0x95F DUP2 DUP6 DUP8 PUSH2 0x5D2 JUMP JUMPDEST SWAP1 POP PUSH2 0x96E PUSH1 0x80 DUP4 ADD DUP5 PUSH2 0x674 JUMP JUMPDEST SWAP10 SWAP9 POP POP POP POP POP POP POP POP POP JUMP INVALID LOG2 PUSH5 0x6970667358 0x22 SLT KECCAK256 0xF8 CALLDATASIZE 0x22 PREVRANDAO 0xEA 0xE8 0xE5 0xBF PUSH24 0xC8D10FF8E9ADD865B953136A84DD7CF231E19895F9DCB364 PUSH20 0x6F6C634300081300330000000000000000000000 "
				},
				"gasEstimates": {
					"creation": {
						"codeDepositCost": "496200",
						"executionCost": "infinite",
						"totalCost": "infinite"
					},
					"external": {
						"sendToProposal(string,string,address,uint256,uint8,string,uint256)": "infinite"
					}
				},
				"methodIdentifiers": {
					"sendToProposal(string,string,address,uint256,uint8,string,uint256)": "a507a53d"
				}
			},
			"storageLayout": {
				"storage": [],
				"types": null
			},
			"userdoc": {
				"kind": "user",
				"methods": {},
				"version": 1
			}
		}
	}
}