{
	"data": {
		"bytecode": {
			"linkReferences": {},
			"object": "60c06040523480156200001157600080fd5b5060405162000f6538038062000f6583398181016040528101906200003791906200017a565b81600073ffffffffffffffffffffffffffffffffffffffff168173ffffffffffffffffffffffffffffffffffffffff16036200009f576040517fe6c4247b00000000000000000000000000000000000000000000000000000000815260040160405180910390fd5b8073ffffffffffffffffffffffffffffffffffffffff1660808173ffffffffffffffffffffffffffffffffffffffff1681525050508073ffffffffffffffffffffffffffffffffffffffff1660a08173ffffffffffffffffffffffffffffffffffffffff16815250505050620001c1565b600080fd5b600073ffffffffffffffffffffffffffffffffffffffff82169050919050565b6000620001428262000115565b9050919050565b620001548162000135565b81146200016057600080fd5b50565b600081519050620001748162000149565b92915050565b6000806040838503121562000194576200019362000110565b5b6000620001a48582860162000163565b9250506020620001b78582860162000163565b9150509250929050565b60805160a051610d6e620001f76000396000505060008181609e0152818160de015281816101fa015261030a0152610d6e6000f3fe608060405234801561001057600080fd5b50600436106100415760003560e01c8063116191b6146100465780631a98b2e0146100645780634916065814610080575b600080fd5b61004e61009c565b60405161005b91906105dc565b60405180910390f35b61007e60048036038101906100799190610728565b6100c0565b005b61009a60048036038101906100959190610838565b6101dc565b005b7f000000000000000000000000000000000000000000000000000000000000000081565b600085856040516100d2929190610940565b604051809103902090507f000000000000000000000000000000000000000000000000000000000000000073ffffffffffffffffffffffffffffffffffffffff16631876eed98c8c8c8c8c878b8b8b6040518a63ffffffff1660e01b8152600401610145999897969594939291906109c6565b6020604051808303816000875af1158015610164573d6000803e3d6000fd5b505050506040513d601f19601f820116820180604052508101906101889190610a7a565b6101be576040517f500c44b400000000000000000000000000000000000000000000000000000000815260040160405180910390fd5b6101cf8a8a8a8a8a8a8a8a8a6102ec565b5050505050505050505050565b600082826040516101ee929190610940565b604051809103902090507f000000000000000000000000000000000000000000000000000000000000000073ffffffffffffffffffffffffffffffffffffffff16635f6970c38989898989876040518763ffffffff1660e01b815260040161025b96959493929190610aa7565b6020604051808303816000875af115801561027a573d6000803e3d6000fd5b505050506040513d601f19601f8201168201806040525081019061029e9190610a7a565b6102d4576040517f500c44b400000000000000000000000000000000000000000000000000000000815260040160405180910390fd5b6102e2878787878787610555565b5050505050505050565b600080600087878101906103009190610b61565b92509250925060007f000000000000000000000000000000000000000000000000000000000000000073ffffffffffffffffffffffffffffffffffffffff1663935b13f688886040518363ffffffff1660e01b8152600401610363929190610bb4565b602060405180830381865afa158015610380573d6000803e3d6000fd5b505050506040513d601f19601f820116820180604052508101906103a49190610c16565b905060008490508173ffffffffffffffffffffffffffffffffffffffff1663095ea7b386886040518363ffffffff1660e01b81526004016103e6929190610c52565b6020604051808303816000875af1158015610405573d6000803e3d6000fd5b505050506040513d601f19601f820116820180604052508101906104299190610a7a565b508173ffffffffffffffffffffffffffffffffffffffff1663a9059cbb86886040518363ffffffff1660e01b8152600401610465929190610c52565b6020604051808303816000875af1158015610484573d6000803e3d6000fd5b505050506040513d601f19601f820116820180604052508101906104a89190610a7a565b508073ffffffffffffffffffffffffffffffffffffffff1663ce6366c4858560016040518463ffffffff1660e01b81526004016104e793929190610d01565b600060405180830381600087803b15801561050157600080fd5b505af1158015610515573d6000803e3d6000fd5b505050507f68f46c45a243a0e9065a97649faf9a5afe1692f2679e650c2f853b9cd734cc0e60405160405180910390a15050505050505050505050505050565b505050505050565b600073ffffffffffffffffffffffffffffffffffffffff82169050919050565b6000819050919050565b60006105a261059d6105988461055d565b61057d565b61055d565b9050919050565b60006105b482610587565b9050919050565b60006105c6826105a9565b9050919050565b6105d6816105bb565b82525050565b60006020820190506105f160008301846105cd565b92915050565b600080fd5b600080fd5b6000819050919050565b61061481610601565b811461061f57600080fd5b50565b6000813590506106318161060b565b92915050565b600080fd5b600080fd5b600080fd5b60008083601f84011261065c5761065b610637565b5b8235905067ffffffffffffffff8111156106795761067861063c565b5b60208301915083600182028301111561069557610694610641565b5b9250929050565b60008083601f8401126106b2576106b1610637565b5b8235905067ffffffffffffffff8111156106cf576106ce61063c565b5b6020830191508360018202830111156106eb576106ea610641565b5b9250929050565b6000819050919050565b610705816106f2565b811461071057600080fd5b50565b600081359050610722816106fc565b92915050565b60008060008060008060008060008060c08b8d03121561074b5761074a6105f7565b5b60006107598d828e01610622565b9a505060208b013567ffffffffffffffff81111561077a576107796105fc565b5b6107868d828e01610646565b995099505060408b013567ffffffffffffffff8111156107a9576107a86105fc565b5b6107b58d828e01610646565b975097505060608b013567ffffffffffffffff8111156107d8576107d76105fc565b5b6107e48d828e0161069c565b955095505060808b013567ffffffffffffffff811115610807576108066105fc565b5b6108138d828e01610646565b935093505060a06108268d828e01610713565b9150509295989b9194979a5092959850565b60008060008060008060006080888a031215610857576108566105f7565b5b60006108658a828b01610622565b975050602088013567ffffffffffffffff811115610886576108856105fc565b5b6108928a828b01610646565b9650965050604088013567ffffffffffffffff8111156108b5576108b46105fc565b5b6108c18a828b01610646565b9450945050606088013567ffffffffffffffff8111156108e4576108e36105fc565b5b6108f08a828b0161069c565b925092505092959891949750929550565b600081905092915050565b82818337600083830152505050565b60006109278385610901565b935061093483858461090c565b82840190509392505050565b600061094d82848661091b565b91508190509392505050565b61096281610601565b82525050565b600082825260208201905092915050565b6000601f19601f8301169050919050565b60006109968385610968565b93506109a383858461090c565b6109ac83610979565b840190509392505050565b6109c0816106f2565b82525050565b600060c0820190506109db600083018c610959565b81810360208301526109ee818a8c61098a565b90508181036040830152610a0381888a61098a565b9050610a126060830187610959565b8181036080830152610a2581858761098a565b9050610a3460a08301846109b7565b9a9950505050505050505050565b60008115159050919050565b610a5781610a42565b8114610a6257600080fd5b50565b600081519050610a7481610a4e565b92915050565b600060208284031215610a9057610a8f6105f7565b5b6000610a9e84828501610a65565b91505092915050565b6000608082019050610abc6000830189610959565b8181036020830152610acf81878961098a565b90508181036040830152610ae481858761098a565b9050610af36060830184610959565b979650505050505050565b6000610b098261055d565b9050919050565b610b1981610afe565b8114610b2457600080fd5b50565b600081359050610b3681610b10565b92915050565b60048110610b4957600080fd5b50565b600081359050610b5b81610b3c565b92915050565b600080600060608486031215610b7a57610b796105f7565b5b6000610b8886828701610b27565b9350506020610b9986828701610713565b9250506040610baa86828701610b4c565b9150509250925092565b60006020820190508181036000830152610bcf81848661098a565b90509392505050565b6000610be38261055d565b9050919050565b610bf381610bd8565b8114610bfe57600080fd5b50565b600081519050610c1081610bea565b92915050565b600060208284031215610c2c57610c2b6105f7565b5b6000610c3a84828501610c01565b91505092915050565b610c4c81610bd8565b82525050565b6000604082019050610c676000830185610c43565b610c7460208301846109b7565b9392505050565b7f4e487b7100000000000000000000000000000000000000000000000000000000600052602160045260246000fd5b60048110610cbb57610cba610c7b565b5b50565b6000819050610ccc82610caa565b919050565b6000610cdc82610cbe565b9050919050565b610cec81610cd1565b82525050565b610cfb81610a42565b82525050565b6000606082019050610d1660008301866109b7565b610d236020830185610ce3565b610d306040830184610cf2565b94935050505056fea2646970667358221220b9a29c40473da777645f80c4e235f426b1eb4b4ad1357ee617806dbcc454db4b64736f6c63430008130033",
			"opcodes": "PUSH1 0xC0 PUSH1 0x40 MSTORE CALLVALUE DUP1 ISZERO PUSH3 0x11 JUMPI PUSH1 0x0 DUP1 REVERT JUMPDEST POP PUSH1 0x40 MLOAD PUSH3 0xF65 CODESIZE SUB DUP1 PUSH3 0xF65 DUP4 CODECOPY DUP2 DUP2 ADD PUSH1 0x40 MSTORE DUP2 ADD SWAP1 PUSH3 0x37 SWAP2 SWAP1 PUSH3 0x17A JUMP JUMPDEST DUP2 PUSH1 0x0 PUSH20 0xFFFFFFFFFFFFFFFFFFFFFFFFFFFFFFFFFFFFFFFF AND DUP2 PUSH20 0xFFFFFFFFFFFFFFFFFFFFFFFFFFFFFFFFFFFFFFFF AND SUB PUSH3 0x9F JUMPI PUSH1 0x40 MLOAD PUSH32 0xE6C4247B00000000000000000000000000000000000000000000000000000000 DUP2 MSTORE PUSH1 0x4 ADD PUSH1 0x40 MLOAD DUP1 SWAP2 SUB SWAP1 REVERT JUMPDEST DUP1 PUSH20 0xFFFFFFFFFFFFFFFFFFFFFFFFFFFFFFFFFFFFFFFF AND PUSH1 0x80 DUP2 PUSH20 0xFFFFFFFFFFFFFFFFFFFFFFFFFFFFFFFFFFFFFFFF AND DUP2 MSTORE POP POP POP DUP1 PUSH20 0xFFFFFFFFFFFFFFFFFFFFFFFFFFFFFFFFFFFFFFFF AND PUSH1 0xA0 DUP2 PUSH20 0xFFFFFFFFFFFFFFFFFFFFFFFFFFFFFFFFFFFFFFFF AND DUP2 MSTORE POP POP POP POP PUSH3 0x1C1 JUMP JUMPDEST PUSH1 0x0 DUP1 REVERT JUMPDEST PUSH1 0x0 PUSH20 0xFFFFFFFFFFFFFFFFFFFFFFFFFFFFFFFFFFFFFFFF DUP3 AND SWAP1 POP SWAP2 SWAP1 POP JUMP JUMPDEST PUSH1 0x0 PUSH3 0x142 DUP3 PUSH3 0x115 JUMP JUMPDEST SWAP1 POP SWAP2 SWAP1 POP JUMP JUMPDEST PUSH3 0x154 DUP2 PUSH3 0x135 JUMP JUMPDEST DUP2 EQ PUSH3 0x160 JUMPI PUSH1 0x0 DUP1 REVERT JUMPDEST POP JUMP JUMPDEST PUSH1 0x0 DUP2 MLOAD SWAP1 POP PUSH3 0x174 DUP2 PUSH3 0x149 JUMP JUMPDEST SWAP3 SWAP2 POP POP JUMP JUMPDEST PUSH1 0x0 DUP1 PUSH1 0x40 DUP4 DUP6 SUB SLT ISZERO PUSH3 0x194 JUMPI PUSH3 0x193 PUSH3 0x110 JUMP JUMPDEST JUMPDEST PUSH1 0x0 PUSH3 0x1A4 DUP6 DUP3 DUP7 ADD PUSH3 0x163 JUMP JUMPDEST SWAP3 POP POP PUSH1 0x20 PUSH3 0x1B7 DUP6 DUP3 DUP7 ADD PUSH3 0x163 JUMP JUMPDEST SWAP2 POP POP SWAP3 POP SWAP3 SWAP1 POP JUMP JUMPDEST PUSH1 0x80 MLOAD PUSH1 0xA0 MLOAD PUSH2 0xD6E PUSH3 0x1F7 PUSH1 0x0 CODECOPY PUSH1 0x0 POP POP PUSH1 0x0 DUP2 DUP2 PUSH1 0x9E ADD MSTORE DUP2 DUP2 PUSH1 0xDE ADD MSTORE DUP2 DUP2 PUSH2 0x1FA ADD MSTORE PUSH2 0x30A ADD MSTORE PUSH2 0xD6E PUSH1 0x0 RETURN INVALID PUSH1 0x80 PUSH1 0x40 MSTORE CALLVALUE DUP1 ISZERO PUSH2 0x10 JUMPI PUSH1 0x0 DUP1 REVERT JUMPDEST POP PUSH1 0x4 CALLDATASIZE LT PUSH2 0x41 JUMPI PUSH1 0x0 CALLDATALOAD PUSH1 0xE0 SHR DUP1 PUSH4 0x116191B6 EQ PUSH2 0x46 JUMPI DUP1 PUSH4 0x1A98B2E0 EQ PUSH2 0x64 JUMPI DUP1 PUSH4 0x49160658 EQ PUSH2 0x80 JUMPI JUMPDEST PUSH1 0x0 DUP1 REVERT JUMPDEST PUSH2 0x4E PUSH2 0x9C JUMP JUMPDEST PUSH1 0x40 MLOAD PUSH2 0x5B SWAP2 SWAP1 PUSH2 0x5DC JUMP JUMPDEST PUSH1 0x40 MLOAD DUP1 SWAP2 SUB SWAP1 RETURN JUMPDEST PUSH2 0x7E PUSH1 0x4 DUP1 CALLDATASIZE SUB DUP2 ADD SWAP1 PUSH2 0x79 SWAP2 SWAP1 PUSH2 0x728 JUMP JUMPDEST PUSH2 0xC0 JUMP JUMPDEST STOP JUMPDEST PUSH2 0x9A PUSH1 0x4 DUP1 CALLDATASIZE SUB DUP2 ADD SWAP1 PUSH2 0x95 SWAP2 SWAP1 PUSH2 0x838 JUMP JUMPDEST PUSH2 0x1DC JUMP JUMPDEST STOP JUMPDEST PUSH32 0x0 DUP2 JUMP JUMPDEST PUSH1 0x0 DUP6 DUP6 PUSH1 0x40 MLOAD PUSH2 0xD2 SWAP3 SWAP2 SWAP1 PUSH2 0x940 JUMP JUMPDEST PUSH1 0x40 MLOAD DUP1 SWAP2 SUB SWAP1 KECCAK256 SWAP1 POP PUSH32 0x0 PUSH20 0xFFFFFFFFFFFFFFFFFFFFFFFFFFFFFFFFFFFFFFFF AND PUSH4 0x1876EED9 DUP13 DUP13 DUP13 DUP13 DUP13 DUP8 DUP12 DUP12 DUP12 PUSH1 0x40 MLOAD DUP11 PUSH4 0xFFFFFFFF AND PUSH1 0xE0 SHL DUP2 MSTORE PUSH1 0x4 ADD PUSH2 0x145 SWAP10 SWAP9 SWAP8 SWAP7 SWAP6 SWAP5 SWAP4 SWAP3 SWAP2 SWAP1 PUSH2 0x9C6 JUMP JUMPDEST PUSH1 0x20 PUSH1 0x40 MLOAD DUP1 DUP4 SUB DUP2 PUSH1 0x0 DUP8 GAS CALL ISZERO DUP1 ISZERO PUSH2 0x164 JUMPI RETURNDATASIZE PUSH1 0x0 DUP1 RETURNDATACOPY RETURNDATASIZE PUSH1 0x0 REVERT JUMPDEST POP POP POP POP PUSH1 0x40 MLOAD RETURNDATASIZE PUSH1 0x1F NOT PUSH1 0x1F DUP3 ADD AND DUP3 ADD DUP1 PUSH1 0x40 MSTORE POP DUP2 ADD SWAP1 PUSH2 0x188 SWAP2 SWAP1 PUSH2 0xA7A JUMP JUMPDEST PUSH2 0x1BE JUMPI PUSH1 0x40 MLOAD PUSH32 0x500C44B400000000000000000000000000000000000000000000000000000000 DUP2 MSTORE PUSH1 0x4 ADD PUSH1 0x40 MLOAD DUP1 SWAP2 SUB SWAP1 REVERT JUMPDEST PUSH2 0x1CF DUP11 DUP11 DUP11 DUP11 DUP11 DUP11 DUP11 DUP11 DUP11 PUSH2 0x2EC JUMP JUMPDEST POP POP POP POP POP POP POP POP POP POP POP JUMP JUMPDEST PUSH1 0x0 DUP3 DUP3 PUSH1 0x40 MLOAD PUSH2 0x1EE SWAP3 SWAP2 SWAP1 PUSH2 0x940 JUMP JUMPDEST PUSH1 0x40 MLOAD DUP1 SWAP2 SUB SWAP1 KECCAK256 SWAP1 POP PUSH32 0x0 PUSH20 0xFFFFFFFFFFFFFFFFFFFFFFFFFFFFFFFFFFFFFFFF AND PUSH4 0x5F6970C3 DUP10 DUP10 DUP10 DUP10 DUP10 DUP8 PUSH1 0x40 MLOAD DUP8 PUSH4 0xFFFFFFFF AND PUSH1 0xE0 SHL DUP2 MSTORE PUSH1 0x4 ADD PUSH2 0x25B SWAP7 SWAP6 SWAP5 SWAP4 SWAP3 SWAP2 SWAP1 PUSH2 0xAA7 JUMP JUMPDEST PUSH1 0x20 PUSH1 0x40 MLOAD DUP1 DUP4 SUB DUP2 PUSH1 0x0 DUP8 GAS CALL ISZERO DUP1 ISZERO PUSH2 0x27A JUMPI RETURNDATASIZE PUSH1 0x0 DUP1 RETURNDATACOPY RETURNDATASIZE PUSH1 0x0 REVERT JUMPDEST POP POP POP POP PUSH1 0x40 MLOAD RETURNDATASIZE PUSH1 0x1F NOT PUSH1 0x1F DUP3 ADD AND DUP3 ADD DUP1 PUSH1 0x40 MSTORE POP DUP2 ADD SWAP1 PUSH2 0x29E SWAP2 SWAP1 PUSH2 0xA7A JUMP JUMPDEST PUSH2 0x2D4 JUMPI PUSH1 0x40 MLOAD PUSH32 0x500C44B400000000000000000000000000000000000000000000000000000000 DUP2 MSTORE PUSH1 0x4 ADD PUSH1 0x40 MLOAD DUP1 SWAP2 SUB SWAP1 REVERT JUMPDEST PUSH2 0x2E2 DUP8 DUP8 DUP8 DUP8 DUP8 DUP8 PUSH2 0x555 JUMP JUMPDEST POP POP POP POP POP POP POP POP JUMP JUMPDEST PUSH1 0x0 DUP1 PUSH1 0x0 DUP8 DUP8 DUP2 ADD SWAP1 PUSH2 0x300 SWAP2 SWAP1 PUSH2 0xB61 JUMP JUMPDEST SWAP3 POP SWAP3 POP SWAP3 POP PUSH1 0x0 PUSH32 0x0 PUSH20 0xFFFFFFFFFFFFFFFFFFFFFFFFFFFFFFFFFFFFFFFF AND PUSH4 0x935B13F6 DUP9 DUP9 PUSH1 0x40 MLOAD DUP4 PUSH4 0xFFFFFFFF AND PUSH1 0xE0 SHL DUP2 MSTORE PUSH1 0x4 ADD PUSH2 0x363 SWAP3 SWAP2 SWAP1 PUSH2 0xBB4 JUMP JUMPDEST PUSH1 0x20 PUSH1 0x40 MLOAD DUP1 DUP4 SUB DUP2 DUP7 GAS STATICCALL ISZERO DUP1 ISZERO PUSH2 0x380 JUMPI RETURNDATASIZE PUSH1 0x0 DUP1 RETURNDATACOPY RETURNDATASIZE PUSH1 0x0 REVERT JUMPDEST POP POP POP POP PUSH1 0x40 MLOAD RETURNDATASIZE PUSH1 0x1F NOT PUSH1 0x1F DUP3 ADD AND DUP3 ADD DUP1 PUSH1 0x40 MSTORE POP DUP2 ADD SWAP1 PUSH2 0x3A4 SWAP2 SWAP1 PUSH2 0xC16 JUMP JUMPDEST SWAP1 POP PUSH1 0x0 DUP5 SWAP1 POP DUP2 PUSH20 0xFFFFFFFFFFFFFFFFFFFFFFFFFFFFFFFFFFFFFFFF AND PUSH4 0x95EA7B3 DUP7 DUP9 PUSH1 0x40 MLOAD DUP4 PUSH4 0xFFFFFFFF AND PUSH1 0xE0 SHL DUP2 MSTORE PUSH1 0x4 ADD PUSH2 0x3E6 SWAP3 SWAP2 SWAP1 PUSH2 0xC52 JUMP JUMPDEST PUSH1 0x20 PUSH1 0x40 MLOAD DUP1 DUP4 SUB DUP2 PUSH1 0x0 DUP8 GAS CALL ISZERO DUP1 ISZERO PUSH2 0x405 JUMPI RETURNDATASIZE PUSH1 0x0 DUP1 RETURNDATACOPY RETURNDATASIZE PUSH1 0x0 REVERT JUMPDEST POP POP POP POP PUSH1 0x40 MLOAD RETURNDATASIZE PUSH1 0x1F NOT PUSH1 0x1F DUP3 ADD AND DUP3 ADD DUP1 PUSH1 0x40 MSTORE POP DUP2 ADD SWAP1 PUSH2 0x429 SWAP2 SWAP1 PUSH2 0xA7A JUMP JUMPDEST POP DUP2 PUSH20 0xFFFFFFFFFFFFFFFFFFFFFFFFFFFFFFFFFFFFFFFF AND PUSH4 0xA9059CBB DUP7 DUP9 PUSH1 0x40 MLOAD DUP4 PUSH4 0xFFFFFFFF AND PUSH1 0xE0 SHL DUP2 MSTORE PUSH1 0x4 ADD PUSH2 0x465 SWAP3 SWAP2 SWAP1 PUSH2 0xC52 JUMP JUMPDEST PUSH1 0x20 PUSH1 0x40 MLOAD DUP1 DUP4 SUB DUP2 PUSH1 0x0 DUP8 GAS CALL ISZERO DUP1 ISZERO PUSH2 0x484 JUMPI RETURNDATASIZE PUSH1 0x0 DUP1 RETURNDATACOPY RETURNDATASIZE PUSH1 0x0 REVERT JUMPDEST POP POP POP POP PUSH1 0x40 MLOAD RETURNDATASIZE PUSH1 0x1F NOT PUSH1 0x1F DUP3 ADD AND DUP3 ADD DUP1 PUSH1 0x40 MSTORE POP DUP2 ADD SWAP1 PUSH2 0x4A8 SWAP2 SWAP1 PUSH2 0xA7A JUMP JUMPDEST POP DUP1 PUSH20 0xFFFFFFFFFFFFFFFFFFFFFFFFFFFFFFFFFFFFFFFF AND PUSH4 0xCE6366C4 DUP6 DUP6 PUSH1 0x1 PUSH1 0x40 MLOAD DUP5 PUSH4 0xFFFFFFFF AND PUSH1 0xE0 SHL DUP2 MSTORE PUSH1 0x4 ADD PUSH2 0x4E7 SWAP4 SWAP3 SWAP2 SWAP1 PUSH2 0xD01 JUMP JUMPDEST PUSH1 0x0 PUSH1 0x40 MLOAD DUP1 DUP4 SUB DUP2 PUSH1 0x0 DUP8 DUP1 EXTCODESIZE ISZERO DUP1 ISZERO PUSH2 0x501 JUMPI PUSH1 0x0 DUP1 REVERT JUMPDEST POP GAS CALL ISZERO DUP1 ISZERO PUSH2 0x515 JUMPI RETURNDATASIZE PUSH1 0x0 DUP1 RETURNDATACOPY RETURNDATASIZE PUSH1 0x0 REVERT JUMPDEST POP POP POP POP PUSH32 0x68F46C45A243A0E9065A97649FAF9A5AFE1692F2679E650C2F853B9CD734CC0E PUSH1 0x40 MLOAD PUSH1 0x40 MLOAD DUP1 SWAP2 SUB SWAP1 LOG1 POP POP POP POP POP POP POP POP POP POP POP POP POP POP JUMP JUMPDEST POP POP POP POP POP POP JUMP JUMPDEST PUSH1 0x0 PUSH20 0xFFFFFFFFFFFFFFFFFFFFFFFFFFFFFFFFFFFFFFFF DUP3 AND SWAP1 POP SWAP2 SWAP1 POP JUMP JUMPDEST PUSH1 0x0 DUP2 SWAP1 POP SWAP2 SWAP1 POP JUMP JUMPDEST PUSH1 0x0 PUSH2 0x5A2 PUSH2 0x59D PUSH2 0x598 DUP5 PUSH2 0x55D JUMP JUMPDEST PUSH2 0x57D JUMP JUMPDEST PUSH2 0x55D JUMP JUMPDEST SWAP1 POP SWAP2 SWAP1 POP JUMP JUMPDEST PUSH1 0x0 PUSH2 0x5B4 DUP3 PUSH2 0x587 JUMP JUMPDEST SWAP1 POP SWAP2 SWAP1 POP JUMP JUMPDEST PUSH1 0x0 PUSH2 0x5C6 DUP3 PUSH2 0x5A9 JUMP JUMPDEST SWAP1 POP SWAP2 SWAP1 POP JUMP JUMPDEST PUSH2 0x5D6 DUP2 PUSH2 0x5BB JUMP JUMPDEST DUP3 MSTORE POP POP JUMP JUMPDEST PUSH1 0x0 PUSH1 0x20 DUP3 ADD SWAP1 POP PUSH2 0x5F1 PUSH1 0x0 DUP4 ADD DUP5 PUSH2 0x5CD JUMP JUMPDEST SWAP3 SWAP2 POP POP JUMP JUMPDEST PUSH1 0x0 DUP1 REVERT JUMPDEST PUSH1 0x0 DUP1 REVERT JUMPDEST PUSH1 0x0 DUP2 SWAP1 POP SWAP2 SWAP1 POP JUMP JUMPDEST PUSH2 0x614 DUP2 PUSH2 0x601 JUMP JUMPDEST DUP2 EQ PUSH2 0x61F JUMPI PUSH1 0x0 DUP1 REVERT JUMPDEST POP JUMP JUMPDEST PUSH1 0x0 DUP2 CALLDATALOAD SWAP1 POP PUSH2 0x631 DUP2 PUSH2 0x60B JUMP JUMPDEST SWAP3 SWAP2 POP POP JUMP JUMPDEST PUSH1 0x0 DUP1 REVERT JUMPDEST PUSH1 0x0 DUP1 REVERT JUMPDEST PUSH1 0x0 DUP1 REVERT JUMPDEST PUSH1 0x0 DUP1 DUP4 PUSH1 0x1F DUP5 ADD SLT PUSH2 0x65C JUMPI PUSH2 0x65B PUSH2 0x637 JUMP JUMPDEST JUMPDEST DUP3 CALLDATALOAD SWAP1 POP PUSH8 0xFFFFFFFFFFFFFFFF DUP2 GT ISZERO PUSH2 0x679 JUMPI PUSH2 0x678 PUSH2 0x63C JUMP JUMPDEST JUMPDEST PUSH1 0x20 DUP4 ADD SWAP2 POP DUP4 PUSH1 0x1 DUP3 MUL DUP4 ADD GT ISZERO PUSH2 0x695 JUMPI PUSH2 0x694 PUSH2 0x641 JUMP JUMPDEST JUMPDEST SWAP3 POP SWAP3 SWAP1 POP JUMP JUMPDEST PUSH1 0x0 DUP1 DUP4 PUSH1 0x1F DUP5 ADD SLT PUSH2 0x6B2 JUMPI PUSH2 0x6B1 PUSH2 0x637 JUMP JUMPDEST JUMPDEST DUP3 CALLDATALOAD SWAP1 POP PUSH8 0xFFFFFFFFFFFFFFFF DUP2 GT ISZERO PUSH2 0x6CF JUMPI PUSH2 0x6CE PUSH2 0x63C JUMP JUMPDEST JUMPDEST PUSH1 0x20 DUP4 ADD SWAP2 POP DUP4 PUSH1 0x1 DUP3 MUL DUP4 ADD GT ISZERO PUSH2 0x6EB JUMPI PUSH2 0x6EA PUSH2 0x641 JUMP JUMPDEST JUMPDEST SWAP3 POP SWAP3 SWAP1 POP JUMP JUMPDEST PUSH1 0x0 DUP2 SWAP1 POP SWAP2 SWAP1 POP JUMP JUMPDEST PUSH2 0x705 DUP2 PUSH2 0x6F2 JUMP JUMPDEST DUP2 EQ PUSH2 0x710 JUMPI PUSH1 0x0 DUP1 REVERT JUMPDEST POP JUMP JUMPDEST PUSH1 0x0 DUP2 CALLDATALOAD SWAP1 POP PUSH2 0x722 DUP2 PUSH2 0x6FC JUMP JUMPDEST SWAP3 SWAP2 POP POP JUMP JUMPDEST PUSH1 0x0 DUP1 PUSH1 0x0 DUP1 PUSH1 0x0 DUP1 PUSH1 0x0 DUP1 PUSH1 0x0 DUP1 PUSH1 0xC0 DUP12 DUP14 SUB SLT ISZERO PUSH2 0x74B JUMPI PUSH2 0x74A PUSH2 0x5F7 JUMP JUMPDEST JUMPDEST PUSH1 0x0 PUSH2 0x759 DUP14 DUP3 DUP15 ADD PUSH2 0x622 JUMP JUMPDEST SWAP11 POP POP PUSH1 0x20 DUP12 ADD CALLDATALOAD PUSH8 0xFFFFFFFFFFFFFFFF DUP2 GT ISZERO PUSH2 0x77A JUMPI PUSH2 0x779 PUSH2 0x5FC JUMP JUMPDEST JUMPDEST PUSH2 0x786 DUP14 DUP3 DUP15 ADD PUSH2 0x646 JUMP JUMPDEST SWAP10 POP SWAP10 POP POP PUSH1 0x40 DUP12 ADD CALLDATALOAD PUSH8 0xFFFFFFFFFFFFFFFF DUP2 GT ISZERO PUSH2 0x7A9 JUMPI PUSH2 0x7A8 PUSH2 0x5FC JUMP JUMPDEST JUMPDEST PUSH2 0x7B5 DUP14 DUP3 DUP15 ADD PUSH2 0x646 JUMP JUMPDEST SWAP8 POP SWAP8 POP POP PUSH1 0x60 DUP12 ADD CALLDATALOAD PUSH8 0xFFFFFFFFFFFFFFFF DUP2 GT ISZERO PUSH2 0x7D8 JUMPI PUSH2 0x7D7 PUSH2 0x5FC JUMP JUMPDEST JUMPDEST PUSH2 0x7E4 DUP14 DUP3 DUP15 ADD PUSH2 0x69C JUMP JUMPDEST SWAP6 POP SWAP6 POP POP PUSH1 0x80 DUP12 ADD CALLDATALOAD PUSH8 0xFFFFFFFFFFFFFFFF DUP2 GT ISZERO PUSH2 0x807 JUMPI PUSH2 0x806 PUSH2 0x5FC JUMP JUMPDEST JUMPDEST PUSH2 0x813 DUP14 DUP3 DUP15 ADD PUSH2 0x646 JUMP JUMPDEST SWAP4 POP SWAP4 POP POP PUSH1 0xA0 PUSH2 0x826 DUP14 DUP3 DUP15 ADD PUSH2 0x713 JUMP JUMPDEST SWAP2 POP POP SWAP3 SWAP6 SWAP9 SWAP12 SWAP2 SWAP5 SWAP8 SWAP11 POP SWAP3 SWAP6 SWAP9 POP JUMP JUMPDEST PUSH1 0x0 DUP1 PUSH1 0x0 DUP1 PUSH1 0x0 DUP1 PUSH1 0x0 PUSH1 0x80 DUP9 DUP11 SUB SLT ISZERO PUSH2 0x857 JUMPI PUSH2 0x856 PUSH2 0x5F7 JUMP JUMPDEST JUMPDEST PUSH1 0x0 PUSH2 0x865 DUP11 DUP3 DUP12 ADD PUSH2 0x622 JUMP JUMPDEST SWAP8 POP POP PUSH1 0x20 DUP9 ADD CALLDATALOAD PUSH8 0xFFFFFFFFFFFFFFFF DUP2 GT ISZERO PUSH2 0x886 JUMPI PUSH2 0x885 PUSH2 0x5FC JUMP JUMPDEST JUMPDEST PUSH2 0x892 DUP11 DUP3 DUP12 ADD PUSH2 0x646 JUMP JUMPDEST SWAP7 POP SWAP7 POP POP PUSH1 0x40 DUP9 ADD CALLDATALOAD PUSH8 0xFFFFFFFFFFFFFFFF DUP2 GT ISZERO PUSH2 0x8B5 JUMPI PUSH2 0x8B4 PUSH2 0x5FC JUMP JUMPDEST JUMPDEST PUSH2 0x8C1 DUP11 DUP3 DUP12 ADD PUSH2 0x646 JUMP JUMPDEST SWAP5 POP SWAP5 POP POP PUSH1 0x60 DUP9 ADD CALLDATALOAD PUSH8 0xFFFFFFFFFFFFFFFF DUP2 GT ISZERO PUSH2 0x8E4 JUMPI PUSH2 0x8E3 PUSH2 0x5FC JUMP JUMPDEST JUMPDEST PUSH2 0x8F0 DUP11 DUP3 DUP12 ADD PUSH2 0x69C JUMP JUMPDEST SWAP3 POP SWAP3 POP POP SWAP3 SWAP6 SWAP9 SWAP2 SWAP5 SWAP8 POP SWAP3 SWAP6 POP JUMP JUMPDEST PUSH1 0x0 DUP2 SWAP1 POP SWAP3 SWAP2 POP POP JUMP JUMPDEST DUP3 DUP2 DUP4 CALLDATACOPY PUSH1 0x0 DUP4 DUP4 ADD MSTORE POP POP POP JUMP JUMPDEST PUSH1 0x0 PUSH2 0x927 DUP4 DUP6 PUSH2 0x901 JUMP JUMPDEST SWAP4 POP PUSH2 0x934 DUP4 DUP6 DUP5 PUSH2 0x90C JUMP JUMPDEST DUP3 DUP5 ADD SWAP1 POP SWAP4 SWAP3 POP POP POP JUMP JUMPDEST PUSH1 0x0 PUSH2 0x94D DUP3 DUP5 DUP7 PUSH2 0x91B JUMP JUMPDEST SWAP2 POP DUP2 SWAP1 POP SWAP4 SWAP3 POP POP POP JUMP JUMPDEST PUSH2 0x962 DUP2 PUSH2 0x601 JUMP JUMPDEST DUP3 MSTORE POP POP JUMP JUMPDEST PUSH1 0x0 DUP3 DUP3 MSTORE PUSH1 0x20 DUP3 ADD SWAP1 POP SWAP3 SWAP2 POP POP JUMP JUMPDEST PUSH1 0x0 PUSH1 0x1F NOT PUSH1 0x1F DUP4 ADD AND SWAP1 POP SWAP2 SWAP1 POP JUMP JUMPDEST PUSH1 0x0 PUSH2 0x996 DUP4 DUP6 PUSH2 0x968 JUMP JUMPDEST SWAP4 POP PUSH2 0x9A3 DUP4 DUP6 DUP5 PUSH2 0x90C JUMP JUMPDEST PUSH2 0x9AC DUP4 PUSH2 0x979 JUMP JUMPDEST DUP5 ADD SWAP1 POP SWAP4 SWAP3 POP POP POP JUMP JUMPDEST PUSH2 0x9C0 DUP2 PUSH2 0x6F2 JUMP JUMPDEST DUP3 MSTORE POP POP JUMP JUMPDEST PUSH1 0x0 PUSH1 0xC0 DUP3 ADD SWAP1 POP PUSH2 0x9DB PUSH1 0x0 DUP4 ADD DUP13 PUSH2 0x959 JUMP JUMPDEST DUP2 DUP2 SUB PUSH1 0x20 DUP4 ADD MSTORE PUSH2 0x9EE DUP2 DUP11 DUP13 PUSH2 0x98A JUMP JUMPDEST SWAP1 POP DUP2 DUP2 SUB PUSH1 0x40 DUP4 ADD MSTORE PUSH2 0xA03 DUP2 DUP9 DUP11 PUSH2 0x98A JUMP JUMPDEST SWAP1 POP PUSH2 0xA12 PUSH1 0x60 DUP4 ADD DUP8 PUSH2 0x959 JUMP JUMPDEST DUP2 DUP2 SUB PUSH1 0x80 DUP4 ADD MSTORE PUSH2 0xA25 DUP2 DUP6 DUP8 PUSH2 0x98A JUMP JUMPDEST SWAP1 POP PUSH2 0xA34 PUSH1 0xA0 DUP4 ADD DUP5 PUSH2 0x9B7 JUMP JUMPDEST SWAP11 SWAP10 POP POP POP POP POP POP POP POP POP POP JUMP JUMPDEST PUSH1 0x0 DUP2 ISZERO ISZERO SWAP1 POP SWAP2 SWAP1 POP JUMP JUMPDEST PUSH2 0xA57 DUP2 PUSH2 0xA42 JUMP JUMPDEST DUP2 EQ PUSH2 0xA62 JUMPI PUSH1 0x0 DUP1 REVERT JUMPDEST POP JUMP JUMPDEST PUSH1 0x0 DUP2 MLOAD SWAP1 POP PUSH2 0xA74 DUP2 PUSH2 0xA4E JUMP JUMPDEST SWAP3 SWAP2 POP POP JUMP JUMPDEST PUSH1 0x0 PUSH1 0x20 DUP3 DUP5 SUB SLT ISZERO PUSH2 0xA90 JUMPI PUSH2 0xA8F PUSH2 0x5F7 JUMP JUMPDEST JUMPDEST PUSH1 0x0 PUSH2 0xA9E DUP5 DUP3 DUP6 ADD PUSH2 0xA65 JUMP JUMPDEST SWAP2 POP POP SWAP3 SWAP2 POP POP JUMP JUMPDEST PUSH1 0x0 PUSH1 0x80 DUP3 ADD SWAP1 POP PUSH2 0xABC PUSH1 0x0 DUP4 ADD DUP10 PUSH2 0x959 JUMP JUMPDEST DUP2 DUP2 SUB PUSH1 0x20 DUP4 ADD MSTORE PUSH2 0xACF DUP2 DUP8 DUP10 PUSH2 0x98A JUMP JUMPDEST SWAP1 POP DUP2 DUP2 SUB PUSH1 0x40 DUP4 ADD MSTORE PUSH2 0xAE4 DUP2 DUP6 DUP8 PUSH2 0x98A JUMP JUMPDEST SWAP1 POP PUSH2 0xAF3 PUSH1 0x60 DUP4 ADD DUP5 PUSH2 0x959 JUMP JUMPDEST SWAP8 SWAP7 POP POP POP POP POP POP POP JUMP JUMPDEST PUSH1 0x0 PUSH2 0xB09 DUP3 PUSH2 0x55D JUMP JUMPDEST SWAP1 POP SWAP2 SWAP1 POP JUMP JUMPDEST PUSH2 0xB19 DUP2 PUSH2 0xAFE JUMP JUMPDEST DUP2 EQ PUSH2 0xB24 JUMPI PUSH1 0x0 DUP1 REVERT JUMPDEST POP JUMP JUMPDEST PUSH1 0x0 DUP2 CALLDATALOAD SWAP1 POP PUSH2 0xB36 DUP2 PUSH2 0xB10 JUMP JUMPDEST SWAP3 SWAP2 POP POP JUMP JUMPDEST PUSH1 0x4 DUP2 LT PUSH2 0xB49 JUMPI PUSH1 0x0 DUP1 REVERT JUMPDEST POP JUMP JUMPDEST PUSH1 0x0 DUP2 CALLDATALOAD SWAP1 POP PUSH2 0xB5B DUP2 PUSH2 0xB3C JUMP JUMPDEST SWAP3 SWAP2 POP POP JUMP JUMPDEST PUSH1 0x0 DUP1 PUSH1 0x0 PUSH1 0x60 DUP5 DUP7 SUB SLT ISZERO PUSH2 0xB7A JUMPI PUSH2 0xB79 PUSH2 0x5F7 JUMP JUMPDEST JUMPDEST PUSH1 0x0 PUSH2 0xB88 DUP7 DUP3 DUP8 ADD PUSH2 0xB27 JUMP JUMPDEST SWAP4 POP POP PUSH1 0x20 PUSH2 0xB99 DUP7 DUP3 DUP8 ADD PUSH2 0x713 JUMP JUMPDEST SWAP3 POP POP PUSH1 0x40 PUSH2 0xBAA DUP7 DUP3 DUP8 ADD PUSH2 0xB4C JUMP JUMPDEST SWAP2 POP POP SWAP3 POP SWAP3 POP SWAP3 JUMP JUMPDEST PUSH1 0x0 PUSH1 0x20 DUP3 ADD SWAP1 POP DUP2 DUP2 SUB PUSH1 0x0 DUP4 ADD MSTORE PUSH2 0xBCF DUP2 DUP5 DUP7 PUSH2 0x98A JUMP JUMPDEST SWAP1 POP SWAP4 SWAP3 POP POP POP JUMP JUMPDEST PUSH1 0x0 PUSH2 0xBE3 DUP3 PUSH2 0x55D JUMP JUMPDEST SWAP1 POP SWAP2 SWAP1 POP JUMP JUMPDEST PUSH2 0xBF3 DUP2 PUSH2 0xBD8 JUMP JUMPDEST DUP2 EQ PUSH2 0xBFE JUMPI PUSH1 0x0 DUP1 REVERT JUMPDEST POP JUMP JUMPDEST PUSH1 0x0 DUP2 MLOAD SWAP1 POP PUSH2 0xC10 DUP2 PUSH2 0xBEA JUMP JUMPDEST SWAP3 SWAP2 POP POP JUMP JUMPDEST PUSH1 0x0 PUSH1 0x20 DUP3 DUP5 SUB SLT ISZERO PUSH2 0xC2C JUMPI PUSH2 0xC2B PUSH2 0x5F7 JUMP JUMPDEST JUMPDEST PUSH1 0x0 PUSH2 0xC3A DUP5 DUP3 DUP6 ADD PUSH2 0xC01 JUMP JUMPDEST SWAP2 POP POP SWAP3 SWAP2 POP POP JUMP JUMPDEST PUSH2 0xC4C DUP2 PUSH2 0xBD8 JUMP JUMPDEST DUP3 MSTORE POP POP JUMP JUMPDEST PUSH1 0x0 PUSH1 0x40 DUP3 ADD SWAP1 POP PUSH2 0xC67 PUSH1 0x0 DUP4 ADD DUP6 PUSH2 0xC43 JUMP JUMPDEST PUSH2 0xC74 PUSH1 0x20 DUP4 ADD DUP5 PUSH2 0x9B7 JUMP JUMPDEST SWAP4 SWAP3 POP POP POP JUMP JUMPDEST PUSH32 0x4E487B7100000000000000000000000000000000000000000000000000000000 PUSH1 0x0 MSTORE PUSH1 0x21 PUSH1 0x4 MSTORE PUSH1 0x24 PUSH1 0x0 REVERT JUMPDEST PUSH1 0x4 DUP2 LT PUSH2 0xCBB JUMPI PUSH2 0xCBA PUSH2 0xC7B JUMP JUMPDEST JUMPDEST POP JUMP JUMPDEST PUSH1 0x0 DUP2 SWAP1 POP PUSH2 0xCCC DUP3 PUSH2 0xCAA JUMP JUMPDEST SWAP2 SWAP1 POP JUMP JUMPDEST PUSH1 0x0 PUSH2 0xCDC DUP3 PUSH2 0xCBE JUMP JUMPDEST SWAP1 POP SWAP2 SWAP1 POP JUMP JUMPDEST PUSH2 0xCEC DUP2 PUSH2 0xCD1 JUMP JUMPDEST DUP3 MSTORE POP POP JUMP JUMPDEST PUSH2 0xCFB DUP2 PUSH2 0xA42 JUMP JUMPDEST DUP3 MSTORE POP POP JUMP JUMPDEST PUSH1 0x0 PUSH1 0x60 DUP3 ADD SWAP1 POP PUSH2 0xD16 PUSH1 0x0 DUP4 ADD DUP7 PUSH2 0x9B7 JUMP JUMPDEST PUSH2 0xD23 PUSH1 0x20 DUP4 ADD DUP6 PUSH2 0xCE3 JUMP JUMPDEST PUSH2 0xD30 PUSH1 0x40 DUP4 ADD DUP5 PUSH2 0xCF2 JUMP JUMPDEST SWAP5 SWAP4 POP POP POP POP JUMP INVALID LOG2 PUSH5 0x6970667358 0x22 SLT KECCAK256 0xB9 LOG2 SWAP13 BLOCKHASH SELFBALANCE RETURNDATASIZE 0xA7 PUSH24 0x645F80C4E235F426B1EB4B4AD1357EE617806DBCC454DB4B PUSH5 0x736F6C6343 STOP ADDMOD SGT STOP CALLER "
		},
		"gasEstimates": {
			"creation": {
				"codeDepositCost": "687600",
				"executionCost": "infinite",
				"totalCost": "infinite"
			},
			"external": {
				"execute(bytes32,string,string,bytes)": "infinite",
				"executeWithToken(bytes32,string,string,bytes,string,uint256)": "infinite",
				"gateway()": "infinite"
			},
			"internal": {
				"_executeWithToken(string calldata,string calldata,bytes calldata,string calldata,uint256)": "infinite"
			}
		},
		"methodIdentifiers": {
			"execute(bytes32,string,string,bytes)": "49160658",
			"executeWithToken(bytes32,string,string,bytes,string,uint256)": "1a98b2e0",
			"gateway()": "116191b6"
		}
	},
	"abi": [
		{
			"inputs": [
				{
					"internalType": "address",
					"name": "_gateway",
					"type": "address"
				},
				{
					"internalType": "address",
					"name": "_gasReceiver",
					"type": "address"
				}
			],
			"stateMutability": "nonpayable",
			"type": "constructor"
		},
		{
			"inputs": [],
			"name": "InvalidAddress",
			"type": "error"
		},
		{
			"inputs": [],
			"name": "NotApprovedByGateway",
			"type": "error"
		},
		{
			"anonymous": false,
			"inputs": [],
			"name": "Executed",
			"type": "event"
		},
		{
			"inputs": [
				{
					"internalType": "bytes32",
					"name": "commandId",
					"type": "bytes32"
				},
				{
					"internalType": "string",
					"name": "sourceChain",
					"type": "string"
				},
				{
					"internalType": "string",
					"name": "sourceAddress",
					"type": "string"
				},
				{
					"internalType": "bytes",
					"name": "payload",
					"type": "bytes"
				}
			],
			"name": "execute",
			"outputs": [],
			"stateMutability": "nonpayable",
			"type": "function"
		},
		{
			"inputs": [
				{
					"internalType": "bytes32",
					"name": "commandId",
					"type": "bytes32"
				},
				{
					"internalType": "string",
					"name": "sourceChain",
					"type": "string"
				},
				{
					"internalType": "string",
					"name": "sourceAddress",
					"type": "string"
				},
				{
					"internalType": "bytes",
					"name": "payload",
					"type": "bytes"
				},
				{
					"internalType": "string",
					"name": "tokenSymbol",
					"type": "string"
				},
				{
					"internalType": "uint256",
					"name": "amount",
					"type": "uint256"
				}
			],
			"name": "executeWithToken",
			"outputs": [],
			"stateMutability": "nonpayable",
			"type": "function"
		},
		{
			"inputs": [],
			"name": "gateway",
			"outputs": [
				{
					"internalType": "contract IAxelarGateway",
					"name": "",
					"type": "address"
				}
			],
			"stateMutability": "view",
			"type": "function"
		}
	]
}